:020000040800F2
:10000000900A00200D0100085B2B00081701000872
:10001000592B000825100008D552000800000000E8
:100020000000000000000000000000001F010008A8
:10003000271000080000000023010008A54D00085B
:1000400027010008270100082701000827010008F0
:1000500027010008270100082D100008771000086C
:100060008710000897100008A71000082701000853
:1000700027010008270100082701000827010008C0
:1000800027010008270100082701000827010008B0
:10009000270100082701000827010008B710000801
:1000A00000000000270100082701000827010008C0
:1000B000694F0008754F0008814F000827010008AC
:1000C0002701000827010008270100082701000870
:1000D000270100088D5200082701000827010008A9
:1000E0003D1000088D300008270100082701000896
:1000F00027010008DFF810D000F0B0FC00480047EE
:100100004D5E0008AFF30080900A0020064880474B
:1001100006480047FEE7FEE7FEE7FEE7FEE7FEE7EC
:10012000FEE7FEE7FEE7FEE7194F0008F5000008CE
:1001300040EA01039B0703D009E008C9121F08C069
:10014000042AFAD203E011F8013B00F8013B521EE9
:10015000F9D27047D2B201E000F8012B491EFBD260
:1001600070470022F6E710B513460A4604461946C2
:10017000FFF7F0FF204610BD70B50F4D00B928689D
:10018000002412E00A4602E09E4203D0521C13787B
:10019000002BF9D1DAB2224305D02BB124B10021D2
:1001A00000F8011B04E00446401C0678002EE9D14B
:1001B0002860204670BD00006C00002070B5064627
:1001C00005F0AEF8046805460A220021304600F02A
:1001D0001DFB2C6070BD2DE9FE4F804681EA0300B7
:1001E000C00F0C46009021F0004123F00045B8EB11
:1001F0000200A94105D24046214690461C460B46C6
:10020000024623F00040104347D0270DC7F30A00F1
:10021000C3F30A510290401A019040286BDAC3F3ED
:10022000130040F4801B0098924620B10023D2EBCB
:10023000030A63EB0B0B01985946C0F1400250468C
:1002400000F065FA06460D4650465946019A00F000
:100250007DFA10EB08006141002487EA115284EA1C
:10026000E7731A4340D0009A62B3019A012A4FEA19
:10027000075215DC001B61EB02014FF0004202EA5D
:100280000752CDE90042001C41F5801132462B4651
:1002900000F03AFB03B0BDE8F08F40462146F9E795
:1002A000001B61EB0201001C41F5801300185B414B
:1002B0002018A2F5001747EB030140EAD570B619E4
:1002C0006D4111E06D084FEA360645EAC0754FEA08
:1002D0000752001B61EB0201001C41F58011490827
:1002E0004FEA30000019514132462B4603B0BDE8B9
:1002F000F04F00F0FABA0098012240000023D0EB42
:10030000020263EBE073009821464FEAE074B8EB19
:10031000000061EB0401E9E783F000435BE781F053
:10032000004158E72DE9FE4F81EA030404F0004440
:1003300021F0004100944FF0000B23F0004350EAFD
:1003400001045ED052EA03045BD0C3F30A54C1F344
:100350000A552C44A4F2F3340194A0FB0254C1F3D7
:10036000130141F48011C3F3130343F4801301FB21
:10037000024400FB034E840A970A44EA815447EA88
:100380008357A4FB076802958D0A05FB07854FEA92
:10039000932C04FB0C542705029D4FEA065847EAAC
:1003A0001637B5EB08056EEB070C870E920E47EA81
:1003B000811742EA8312A7FB0201B6EB0B0164EB43
:1003C00000042B0D43EA0C335E1844EB1C50DA4654
:1003D0005146E7FB0201C5F313044FEA0B3343EA2E
:1003E00014534FEA0432019C43EA0603A4F10C04BF
:1003F0000294009CCDE900B400F086FA03B0BDE899
:10040000F08F00200146F9E72DE9F04D81EA030461
:1004100004F0004B21F0004514464FF0000A23F091
:10042000004150EA050220D054EA01021DD0C5F374
:100430000A570246C5F31303C1F31300C1F30A566A
:1004400040F4801543F48013A7EB0608101BD64632
:1004500008F2FD3873EB050002D308F1010801E052
:1004600092185B41B8F1000F03DA00200146BDE8A5
:10047000F08D00204FF48011064684460EE0171BD5
:1004800073EB050705D3121B63EB050306434CEA28
:10049000010C49084FEA300092185B4150EA01070D
:1004A000EDD152EA030012D082EA040083EA05018A
:1004B000084305D0101BAB4106D20122002306E001
:1004C00000224FF0004302E06FF0010253101AEBDC
:1004D00006004CEB085110EB0A0041EB0B01BDE8A4
:1004E000F04D00F002BA70B521F0004303430CD088
:1004F000C1F30A550024D5EB040564EB0403D617B9
:10050000AD1AB34102DB0020014670BD201841EB5B
:10051000025170BD0EB5C10F80EAE0700844CA07F1
:10052000002140F233438DE80E000A460B4600F0EE
:10053000EBF903B000BD0EB540F23341029100214A
:10054000CDE900110A460B4600F0DEF903B000BD0C
:1005500070B5C1F30A5201F000450024C1F3130144
:1005600040F2FF3341F480119A4201DA002070BD5D
:1005700040F233439A42A2F2334203DC524200F08B
:10058000D5F800E090402C43F1D0404270BDC1F35B
:100590000A5210B5C1F3130140F2FF3341F4801148
:1005A0009A4201DA002010BD40F233439A42A2F28F
:1005B000334203DC524200F0B9F810BD904010BD48
:1005C00000F0004230F000400AD0C10D01F560712A
:1005D000C0F3160042EA0151C208400711437047B8
:1005E000002001467047000030B5041E71F1000480
:1005F00004DB4FF00044404264EB0101141E73F130
:10060000000405DB1C464FF00043524263EB040339
:100610008B4208BF824230BD30B5041E71F1000428
:1006200004DB4FF00044404264EB0101141E73F1FF
:10063000000405DB1C464FF00043524263EB040309
:10064000994208BF904230BD01F0004330B421F020
:10065000004150EA010206D00A0DA2F56072C1F312
:100660001301002A02DC30BC00207047440F44EA2A
:10067000C104C100E01830BC00EBC25000F0FEB86D
:1006800030B50B46014600202022012409E021FA62
:1006900002F59D4205D303FA02F5491B04FA02F55F
:1006A0002844151EA2F10102F1DC30BD2DE9F05FF6
:1006B0000546002092469B468846064681464024D1
:1006C0001BE0284641464746224600F02FF8534695
:1006D0005A46C01A914110D311461846224600F0DE
:1006E00016F82D1A67EB01084F462246012000211B
:1006F00000F00DF817EB00094E41201EA4F1010493
:10070000DFDC484631462A464346BDE8F09F202AB2
:1007100004DB203A00FA02F1002070479140C2F158
:10072000200320FA03F3194390407047202A04DB8A
:10073000203A21FA02F00021704721FA02F3D0405A
:10074000C2F120029140084319467047202A06DB77
:10075000CB17203A41FA02F043EAE07306E041FA8F
:1007600002F3D040C2F1200291400843194670477D
:100770000FB4002300B589B00CA900910B996FF05C
:100780000042CB601E4B06931E4B07930423CDE91A
:1007900001321D4A089202466B46002000F012FA10
:1007A00009B05DF814FB70B586B006464FF0FF3017
:1007B0000091CDE90101002015460C460490324617
:1007C000694604A8FFF7D4FF02460498211825B112
:1007D00008B1084600E020462860049800280DD0A3
:1007E000002A02DD0098884208D0081B0094CDE959
:1007F00001043246694604A8FFF7BAFF06B070BD8F
:10080000FD0D00081B0E0008890A00082DE9F047BD
:1008100091460F4680460446002614F8015B2DB130
:1008200000F02EF90068405DC007F6D12B2D02D0F4
:100830002D2D18D0641E4A463946204600F0FEFA97
:1008400027B13968A14201D1C7F8008071054FF086
:1008500002040BD54042002803DD04F061FD046072
:10086000A007BDE8F08746F48066E4E70028F8DAE0
:1008700004F056FD04606FF00040F2E70029A8BFC5
:100880007047401C490008BF20F00100704710B4B9
:10089000B0FA80FC00FA0CF050EA010404BF10BC6E
:1008A000704749B1CCF1200421FA04F411FA0CF19B
:1008B00018BF012121430843A3EB0C01CB1D4FEAD4
:1008C00000614FEA102042BF002010BC704700EBCF
:1008D000C35010440029A4BF10BC7047401C4900FD
:1008E00008BF20F0010010BC704710B5141E73F152
:1008F000000408DA401C41F1000192185B411A43E0
:1009000001D120F0010010BD2DE9F04D92469B462B
:1009100011B1B1FA81F202E0B0FA80F220329046D1
:10092000FFF7F5FE04460F4640EA0A0041EA0B01D4
:1009300053465A46084313D0114653EA010019D0D2
:10094000C8F140025046FFF7F1FE05460E465046FC
:1009500059464246FFF7DBFE084305D0012004E07C
:1009600020463946BDE8F08D0020054346EAE07692
:100970002C4337430A986305E40AA0EB08000022E1
:10098000FD0A44EA47540A3002D500200146E9E74F
:10099000010510196941DDE9084500196941BDE803
:1009A000F04DA2E72DE9F041054621F000400C464C
:1009B000284309D0C4F30A5040F23341884205DD90
:1009C00028462146BDE8F0812846FBE740F2FE318B
:1009D000884210DC0CDB4FEA043040EA155050EA44
:1009E000053105D0104804F0004101430020E9E73B
:1009F00000200146E6E7A0F233404642C6F140023D
:100A000028462146FFF783FE0746884628462146AA
:100A10003246FFF78BFE43463A46FFF766FF324603
:100A2000BDE8F041FFF773BE0000F03FC1F30A528A
:100A3000C1F3130140F2FF3341F480119A4202DA0C
:100A400000200146704740F233439A42A2F23342FB
:100A500002DC5242FFF76ABEFFF759BE064C074D53
:100A600006E0E06840F0010394E80700984710347E
:100A7000AC42F6D3FFF742FBCC770008EC770008D6
:100A800000487047C877000810B50446FFF7F8FF24
:100A90000068005D00F0010010BD00002DE9FF4F6F
:100AA000087883B09946FF2805D0491C2D2804D02A
:100AB0000024002008E000200BE00124F9E700EB0F
:100AC000800003EB4000491C0B78FF2BF7D104B1E9
:100AD000404200230293147819461D462D2C01D064
:100AE0002B2C04D1521C2D2C13D000240294AA4686
:100AF0001478FF2C0FD00A25A3FB057801FB058194
:100B00004FF0000C03FB0C11521CE3194AEB0101DE
:100B1000EEE70124EAE7814453EA010002D019F527
:100B2000C87F06DA03980021C0E9001107B0BDE8CC
:100B3000F08F0025AE4E2F46DFF8B882184600F041
:100B4000DAF9CDE90001B9F1000002DAC9F10004D7
:100B500000E004460023A74A1AEB030B42EB045AB9
:100B600012E0E00707D02A46334638464146FFF7F1
:100B7000D9FB074688462A46334610461946FFF7F2
:100B8000D1FB05460E466410002CEAD1DDE90001D8
:100B9000B9F1000F5A46534606DAFFF735FC3A46DC
:100BA0004346FFF731FC05E0FFF7BCFB3A464346FE
:100BB000FFF7B8FB029A0AB181F00041039AC2E93B
:100BC0000001B3E72DE9FF4F1F468DB0D7E901467D
:100BD0004FF0FF382E2045464FF000090B90B969C1
:100BE0006D1C0E988847396A824688470028F6D1DE
:100BF000BAF1FF3F0AD024F4D064002E11DDBAF11F
:100C00002B0F08D0BAF12D0F0BD102E0404611B0E6
:100C10008DE744F48064B9696D1C0E98884782465C
:100C2000761E6946600501D52D2000E02B208DF849
:100C3000000001F1010B0DF1200809E0B9696D1CFC
:100C40000E98884782460F9844F40074761E05601B
:100C5000002E02DDBAF1300FF0D00B998A453ED15B
:100C600044F0800406E00F99681CA9F1010944F4DE
:100C700000740860B9696D1C761E0E98884782461C
:100C80003028F0D02BE00B998A4505D1200603D4FB
:100C900044F08004761E18E0504604F023FC08B3AC
:100CA0000DF11301761E44F400748B4508D2AAF1AD
:100CB00030000BF8010B200607D5A9F1010003E075
:100CC000200602D409F101008146A00502D50F9942
:100CD000681C0860B9696D1C0E9888478246002E12
:100CE000D1DC53E0002E51DDBAF1650F02D0BAF12C
:100CF000450F4BD1A00549D5B9696D1C24F440744A
:100D0000761E0E9888478246002E0CDD2B2804D0D4
:100D1000BAF12D0F07D144F48074B9696D1C0E9897
:100D200088478246761EE00501D52D2100E02B2163
:100D300008F8011BCDF82C8021E00DF12901761E69
:100D400044F4007488450CD2AAF1300010F0FF0082
:100D500088F8000002D10B99884509D908F10108EB
:100D600006E0E00501D5244801E042F20F7081461B
:100D7000B9696D1C0E98884782460F980560002E51
:100D800004DD504604F0AEFB0028D6D1F9690E9878
:100D90008847FF208BF8000088F8000000200690AC
:100DA00007904B466A4608A906A8FFF777FEA005FC
:100DB00002D46FF001002AE714F0240F0AD0E007F4
:100DC00014D1DDE906123868031D3B600068C0E9F4
:100DD00000120BE0DDE90601FFF736FC0146E007F3
:100DE00004D13868021D3A600068016028460EE7A9
:100DF000000014400000F03FF1D8FFFF426842B10C
:100E0000016811F8013B23B1521EC0E900121846D7
:100E100070470121C160881E704742685AB1C3689B
:100E2000016843B983688B4205D0491E521CC0E952
:100E30000012002070474FF0FF3070472DE9F05F3F
:100E400082460078002715468B460AF10104B94610
:100E5000302801D09DB113E014F8010B0127782848
:100E600003D0582801D045B10AE00DB1102D07D1AB
:100E70000027102514F8010B02E0082500E00A25E0
:100E80000026B0460EE005FB080005FB06F1012731
:100E900001EB10461FFA80F8B6F5803F00D3B94643
:100EA00014F8010B294600F018F80028EBDABBF122
:100EB000000F05D00FB1641E00E05446CBF800408F
:100EC000B9F1000F06D004F02BFA02210160C81E10
:100ED000BDE8F09F48EA0640FAE73A2800D23038E9
:100EE00020F02002412A01D3A2F13700884201D329
:100EF0004FF0FF3070470EB540F2334202920022AD
:100F0000CDE900221346FFF7FFFC03B000BD00004F
:100F100010B5040001D002F085FB0148C47010BD7B
:100F20001000002072B602484178491C4170704799
:100F30000C00002004494878401E10F0FF00487063
:100F400000D162B6704700000C00002030B51B4D88
:100F500085B02878A0B103F07BFF00BF4FF0FF30D1
:100F60000090052306220721154803F093FE02F0A6
:100F70005BFD2878002801D10120287005B030BD24
:100F800000F002FB03F016FF02F004FB00240094C3
:100F900001230322122102A8019400F0B9F8009461
:100FA00000230322082102A8019400F0B1F800F008
:100FB000DBF900F0C9F900F0CFF9CFE70C00002011
:100FC000640500201CB5002400942346012203215F
:100FD0001348019400F09CF811480094002301226A
:100FE00018210C30019400F093F80120CDE90004A1
:100FF0000B4800231A462D21183000F089F80121F2
:10100000074800F09FF9064801210C3000F09AF9DA
:10101000BDE81C4002480121183000F093B90000DF
:10102000B0010020FEE7704700F0A6B910B502F04D
:10103000F9FABDE81040012000F0BCB910B502F08B
:10104000F1FA4FF4806000F0B5F94FF4006000F061
:10105000B1F94FF4805000F0ADF94FF4005000F0BA
:10106000A9F94FF4804000F0A5F9BDE810404FF415
:10107000004000F09FB910B502F0D4FABDE810406E
:10108000022000F097B910B502F0CCFABDE810408C
:10109000042000F08FB910B502F0C4FABDE810408A
:1010A000082000F087B910B502F0BCFABDE8104086
:1010B000102000F07FB910B502F0B4FA202000F043
:1010C00079F9402000F076F9802000F073F94FF4B0
:1010D000807000F06FF9BDE810404FF4007000F030
:1010E00069B90000094A002152F83130834208D81A
:1010F00002EBC1039B68834203D902EBC100007974
:101100007047491CC9B21529EED3FEE79476000852
:101110007CB5DDE90645CDE9004500F001F87CBD70
:10112000F0B587B00546DDE90C760170481C6AD041
:1011300001F00F04012000FA04F46C80334C11F02C
:10114000F00F1FD0C1F30311012925D002292DD0A2
:10115000032935D02E496960216841F020012160C2
:10116000216801F02001059169880091AF72022188
:10117000CDE9027172B3032A2ED0022A2FD0012B9F
:1011800035D035E023496960216841F001012160D3
:10119000216801F00101E6E71F496960216841F01B
:1011A00002012160216801F00201DCE71B4969604E
:1011B000216841F004012160216801F00401D2E7B7
:1011C00017496960216841F008012160216801F038
:1011D0000801C8E7002000E0032001900FE0012B88
:1011E00002D0019104960AE012200190FAE7112042
:1011F0000190012A03D13146284600F097F869464C
:10120000686800F0E3F807B0F0BD00001C38024049
:1012100000140240000002400004024000080240A6
:10122000000C02402DE9F04186B01F0090460546B3
:101230004FF000064FF006046CD06888009001293A
:1012400016D0022916D035480190A87A02900220C3
:1012500003906946686800F0B9F85FEA08000BD0AF
:10126000012809D0022809D0B8F1030F09D107E0FD
:101270002B48E9E72B48E7E7032602E0022600E0D7
:1012800001266888B0F5807F33D012DC10282ED07C
:1012900008DC012830D0022823D0042823D00828D5
:1012A0002AD122E0202824D0402822D0802823D10F
:1012B0001FE0B0F5805F1ED009DCB0F5007F18D0CC
:1012C000B0F5806F17D0B0F5006F15D113E0B0F511
:1012D000005F10D0B0F5804F0DD0B0F5004F0BD1AE
:1012E00009E0072408E0082406E0092404E00A24B1
:1012F00002E0172400E0282428780B4900F00F00B2
:10130000002241F820703146204600F069F920465D
:1013100000F05BF906B0BDE8F0810000000031107C
:101320000000111000002110E001002090F90020C1
:10133000521C04D0CAB24188406800F012B970470C
:10134000FFF770BFFFF7F2BF0248416841F00101AB
:1013500041607047002004E00248416841F0040108
:1013600041607047002004E00248416841F00201FA
:1013700041607047002004E031B500F0F7F8044602
:1013800000F0F4F80099001B8842F9D338BD000042
:10139000002118B904E04008491CC9B20128FAD15B
:1013A000034850F82100002800D000477047000093
:1013B000E0010020044910B50A68024202D008602A
:1013C000FFF7E6FF10BD0000140401402DE9F84FBF
:1013D000DFF864B100234FF0010C4FF0030A4FF027
:1013E0000F090BF1040EA0E00CFA03F6324072D0A4
:1013F0004C68022C01D0122C0ED1DC0800EB8408C2
:10140000D8F820405D07EF0E09FA07F5AC430D69E7
:10141000BD402543C8F8205007685D0091F804805E
:101420000AFA05F408F00308A74308FA05F848EAA1
:101430000708C0F800804F68012F05D0022F03D0A5
:10144000112F01D0122F11D18768D1F80C80A7433A
:1014500008FA05F848EA0708C0F808804768B74363
:101460000E79C6F300169E403E434660C668A6430A
:101470008C68AC403443C4604C68E40054D52F4CB5
:10148000256845F001052560246823F0030504F074
:10149000010400942A4C2544AF689C07240F09FAE4
:1014A00004F6B743274EB04201D1002615E0264E80
:1014B000B04201D1012610E0244EB04201D10226F3
:1014C0000BE0234EB04201D1032606E0214EB0428C
:1014D00002D1042601E027E00526A6403E43AE6087
:1014E000DBF800405D464E689443F60300D5144394
:1014F0002C60DEF8004075464E689443B60300D574
:1015000014432C600C4D08352C684E689443F60249
:1015100000D514432C60084D0C352C684E6894435C
:10152000B60200D514432C605B1C0A6832FA03F43F
:101530007FF45AAFBDE8F88F000401402038024024
:101540000000014000000240000402400008024088
:10155000000C0240001002400069084000D0012049
:1015600070470AB1816170470904FBE701480068D0
:10157000704700003C00002002480168491C0160DF
:10158000704700003C00002010B5032000F048F830
:10159000002000F005F800F017F8002010BD000052
:1015A00010B5044607484FF47A710068B0FBF1F0BB
:1015B00001F074F900222146501E00F011F80020BD
:1015C00010BD000038000020704700F01F0201210C
:1015D00091404009800000F1E020C0F80011704700
:1015E000F0B40E4B1B680C46C3F30223C3F107058E
:1015F000042D00D90425191D072901D2002300E07C
:10160000DB1E012606FA05F1491E214099409E4045
:10161000761E16403143F0BC01F008BB0CED00E033
:10162000064900F0070208684FF6FF03184040EA39
:101630000220034A10430860704700000CED00E0F0
:101640000000FA050248006800F4C050704700002E
:10165000007000402DE9F84F06460078C00775D0AD
:10166000DFF84C810027D8F80000C0000BD4D8F870
:10167000001041F08051C8F80010D8F80000012790
:1016800000F0805000904B4C2068C00510D42068BA
:1016900040F480702060FFF769FF054605E000BF59
:1016A000FFF764FF401B64284ED82068C005F7D5BB
:1016B0003F4D243D286800F0C041706800F0C042F2
:1016C0008A4209D0C0F30141032905D12968890361
:1016D00002D50120BDE8F88F354C1034216811F493
:1016E00040314AD000F44030884246D03078C007BC
:1016F00043D020684FF4000292FAA2F1B1FA81F1CE
:101700004FEA810C2C494FF0010A8C4420F4403000
:10171000CCF880A692FAA2F2B2FA82F201EB820130
:101720000023C1F880362060C00526D5FFF71EFFD4
:1017300081464FF4007B0AE0FFF718FFA0EB090198
:1017400041F28830814202D90320C3E72EE09BFAA0
:10175000ABF0B0FA80F040F04001BAEB511F01D17C
:10176000296800E021689BFAABF2B2FA82F202F03B
:101770001F020AFA02F00142DED07068C0F3014194
:10178000032906D1296800F0C04021F0C04101437F
:1017900029602068716801F44031084320602FB14E
:1017A000D8F8001021F08051C8F80010002091E70F
:1017B0002438024000700040000047422DE9F04705
:1017C000DFF8BC8105460E46D8F8000000F00100A5
:1017D000B04214D2012E05D1D8F8001041F0040116
:1017E000C8F80010D8F8001021F001013143C8F802
:1017F0000010D8F8000000F00100B04271D1287844
:10180000604C800705D52068A96820F0F0000843E7
:1018100020602878C00771D05A4A5A4B6968012065
:10182000083A2C33022910D003292ED001292FD0B9
:101830005FEA402797FAA7FCBCFA8CFC4CF0200C1E
:101840005FEA5C1C04D0126803E04FF40037F1E754
:101850001A6897FAA7F3B3FA83F303F01F039840CB
:10186000024262D0206820F0030008432060FFF7A6
:101870007DFE6968074641F28830022910D00329AD
:101880001CD00129814626D034E04FF00077D1E703
:101890000227CFE7FFF76AFEC11B494501D926E0C1
:1018A00081462068C0F381000228F3D126E000BF02
:1018B000FFF75CFEC11B494501D918E0814620684D
:1018C000C0F381000328F3D118E000BFFFF74EFEFC
:1018D000C11B49450BD82068C0F381000128F5D110
:1018E0000CE022E0FFF742FEC11B494502D903206C
:1018F000BDE8F087206810F00C0FF3D1D8F8001085
:10190000404601F00101B14211D9012E03D1016815
:1019100041F004010160016821F0010131430160DF
:10192000006800F00100B04201D00120E0E7287813
:10193000400705D52068E96820F4E060084320608E
:101940002878000706D52068296920F4605040EA0D
:10195000C100206000F022F82168F02292FAA2F281
:1019600001F0F001B2FA82F2D140074A515CC8405E
:10197000064908600020FFF713FE0020B8E70000CA
:10198000003C024008380240216300083800002073
:101990000148006870470000380000201E4A1168A6
:1019A00001F00C00042813D0082813D00C2813D001
:1019B000101F006800F460414FF4604090FAA0F0FE
:1019C000B0FA80F0C1404FF40040491C8840704795
:1019D00012487047124870474FF4701393FAA3F3FC
:1019E00001F47010B3FA83F3D8400E4B01F44001B8
:1019F0001268185C4FF4400393FAA3F3B3FA83F32D
:101A0000D940491CD20301D5054A00E0034A50439E
:101A1000B0FBF1F070470000083802400024F400E9
:101A200000127A00186300082DE9F84F0746007885
:101A3000FB4EFC4DC0074FF0010428D0F848083099
:101A400001684FF40038C1F38101022907D0016811
:101A5000C1F3810103291BD10068C00318D598FA8E
:101A6000A8F0B0FA80F040F02000400901D03068C2
:101A700000E0286898FAA8F1B1FA81F101F01F019D
:101A800004FA01F108425CD0786800287BD058E065
:101A9000786801280AD008B1052811D0306820F4F0
:101AA00080303060306820F4802002E0306840F4FC
:101AB00080303060786828B3FFF758FD81460BE02E
:101AC000306840F480203060F0E700BFFFF74EFD43
:101AD000A0EB0900642872D898FAA8F0B0FA80F058
:101AE00040F02000400901D0306800E0286898FAF2
:101AF000A8F1B1FA81F101F01F0104FA01F10842E5
:101B0000E4D01EE0FFF732FD814605E0FFF72EFD31
:101B1000A0EB09006428DED898FAA8F0B0FA80F0AB
:101B200040F02000400901D0306800E0286898FAB1
:101B3000A8F1B1FA81F101F01F0104FA01F10842A4
:101B4000E4D13878DFF8E08280074FF0000B4FF0E7
:101B500002095FD5B24808300168C1F3810101294B
:101B600007D00168C1F3810103291CD10068C003BB
:101B700019D499FAA9F0B0FA80F040F02000400999
:101B800002D0306801E086E0286899FAA9F1B1FA3C
:101B900081F101F01F0104FA01F108422BD0F8682D
:101BA000012878D127E0F868A8B394FAA4F0B0FA35
:101BB00080F048F82040FFF7D9FC824606E066E155
:101BC000FFF7D4FCA0EB0A00022884D899FAA9F107
:101BD000B1FA81F141F02001490901D0316800E0FA
:101BE000296899FAA9F0B0FA80F000F01F0004FA11
:101BF00000F00142E4D08A48001D01684FF4F85318
:101C000093FAA3F33A69B3FA83F321F4F8519A40B3
:101C10001143016025E0FFE794FAA4F1B1FA81F1E4
:101C200048F821B0FFF7A2FC824605E0FFF79EFCD2
:101C3000A0EB0A000228C8D899FAA9F0B0FA80F0FF
:101C400040F02000400901D0306800E0286899FA8F
:101C5000A9F1B1FA81F101F01F0104FA01F1084282
:101C6000E4D138784FF4007AC0067CD56C4808304F
:101C7000006810F00C0F0FD0B9694FF48070002984
:101C800072D090FAA0F0B0FA80F048F82040FFF748
:101C90006DFC00907EE087E09AFAAAF0B0FA80F03E
:101CA00040F02000400901D0306800E028689AFA2E
:101CB000AAF1B1FA81F101F01F0104FA01F1084221
:101CC00002D0B86900286FD05548396A001D0068F5
:101CD00000F4604081421AD9084601F09BF90028BF
:101CE00062D14F48001D01683A6A21F460411143F6
:101CF000016001684FF07F4393FAA3F3FA69B3FAE6
:101D000083F321F07F419A401143016018E0444879
:101D1000001D026822F460420A43026001684FF02D
:101D20007F4393FAA3F3FA69B3FA83F321F07F4177
:101D30009A4011430160386A01F06CF90028CFD154
:101D40004FF4604191FAA1F1386AB1FA81F1C840CB
:101D50004FF40041401C8140314808300068F022B7
:101D600000F0F00001E070E040E092FAA2F2B2FA76
:101D700082F2D0402D4A105CC1402D480160002005
:101D8000FFF70EFC61E000BFFFF7F0FB0099401A7F
:101D900002287CD89AFAAAF0B0FA80F040F020002D
:101DA000400902D0306801E0BCE128689AFAAAF143
:101DB000B1FA81F101F01F0104FA01F10842E3D008
:101DC0001748001D01683A6A21F46041114301601F
:101DD00001684FF07F4393FAA3F3FA69B3FA83F3F0
:101DE00021F07F419A40114301602EE090FAA0F06B
:101DF000B0FA80F048F820B0FFF7B8FB009005E09B
:101E0000FFF7B4FB0099401A0228C2D89AFAAAF048
:101E1000B0FA80F040F0200040090BD030680AE0B2
:101E20000038024034380240000047422163000875
:101E30003800002028689AFAAAF1B1FA81F101F07D
:101E40001F0104FA01F10842DAD13878000753D5AE
:101E5000786948B394FAA4F0B0FA80F008EB8000F7
:101E6000C0F88046FFF782FB009005E0FFF77EFB9D
:101E70000099401A02288CD899FAA9F0B0FA80F09B
:101E800040F04000B4EB501F02D1306801E08EE01A
:101E9000286899FAA9F1B1FA81F101F01F0104FA59
:101EA00001F21042E2D027E094FAA4F1B1FA81F1F4
:101EB00008EB8101C1F880B6FFF758FB009005E000
:101EC000FFF754FB0099401A022870D899FAA9F03C
:101ED000B0FA80F040F04000B4EB501F01D1306800
:101EE00000E0286899FAA9F1B1FA81F101F01F0127
:101EF00004FA01F21042E3D1387840077BD59B48C1
:101F00004FF000090068C0000AD49848016841F009
:101F10008051016000684FF0010900F0805000908E
:101F200093480168C90511D4016841F480710160CA
:101F3000FFF71CFB009005E0FFF718FB0099401A23
:101F4000642834D88A480068C005F5D5B8680128E7
:101F50000AD008B1052811D0286820F480702860C4
:101F6000286820F4806002E0286840F480702860CF
:101F7000B86848B3FFF7FAFA00900DE0286840F41B
:101F800080602860F0E700BFFFF7F0FA0099411A7F
:101F900041F2883081420AD89AFAAAF0B0FA80F069
:101FA00040F04000B4EB501F02D1306801E095E0F2
:101FB00028689AFAAAF1B1FA81F101F01F0104FA36
:101FC00001F21042E0D022E0FFF7D0FA009007E0E3
:101FD000FFF7CCFA0099411A41F2883081427DD84E
:101FE0009AFAAAF0B0FA80F040F04000B4EB501F2B
:101FF00002D1306801E012E028689AFAAAF1B1FA39
:1020000081F101F01F0104FA01F21042E0D1B9F1AF
:10201000000F04D05548016821F080510160786AB2
:10202000E8B3DFF84891A9F11C09D9F80010C1F311
:102030008101032976D002284FF080714FF0007A99
:1020400058460BD091FAA1F1B1FA81F148F821007C
:10205000FFF78CFAB046074656466DE04FF08071A8
:1020600091FAA1F1B1FA81F18A0042495050FFF78B
:102070007DFAB3468046564606E000BFFFF776FA83
:10208000A0EB0800022854D896FAA6F0B0FA80F027
:1020900040F02000400903D0DBF8000001E061E0DF
:1020A000286896FAA6F1B1FA81F101F01F0104FA4D
:1020B00001F10842E2D1D7E90A103A6BD9F80030B1
:1020C000014323F47D031A431143C9F800104FF074
:1020D000807090FAA0F0B0FA80F000E029E0810072
:1020E00024480C50FFF742FA074604E0FFF73EFA97
:1020F000C01B02281DD896FAA6F0B0FA80F040F076
:102100002000400902D0DBF8000000E0286896FAC1
:10211000A6F1B1FA81F101F01F0104FA01F10842C0
:10212000E4D01FE020E000BFFFF720FAC01B022828
:1021300002D90320BDE8F88F96FAA6F0B0FA80F035
:1021400040F02000400902D0D8F8000000E02868E4
:1021500096FAA6F1B1FA81F101F01F0104FA01F13A
:102160000842E1D10020E5E70120E3E724380240FE
:10217000007000400000474270472DE9F0470446D8
:10218000007F01281CD00126267702206077216875
:10219000CA2048622168532048622068816821F47F
:1021A000806181602068816821F480418160FFF74F
:1021B000DDF9054600274FF0FF084FF47A790EE06D
:1021C0000220BDE8F087FFF7D1F9401B484506D94A
:1021D0002168C1F82480032060772777F1E7206821
:1021E000C0684007EFD52168C1F82480667727775B
:1021F0000020E6E77047000010B5044600688168DB
:10220000C9040CD5C068C00509D52046FFF7F2FF08
:102210002068C16801F0800161F4C071C16020686C
:10222000816889040CD5C068800509D52046FFF770
:10223000A3FF2068C16801F0800161F42071C160D2
:1022400003494FF4003008600120607710BD0000A2
:10225000140401402DE9F0470446007F012822D0F4
:102260004FF0010884F81C80022060772268CA20A1
:10227000506222685320506220680025FF26B1F585
:10228000807F81684FF0030A4FF47A790ED021F4F1
:10229000007181602068816821F400518160FFF73E
:1022A00065F9074624E00220BDE8F08721F480713B
:1022B00081602068816821F480518160FFF756F9C0
:1022C000074604E0FFF752F9C01B484509D82068CB
:1022D000C068C007F6D00FE0FFF748F9C01B4845BB
:1022E00006D92068466284F81DA025770320DBE725
:1022F0002068C0688007EFD52068466284F81D809A
:1023000025770020D0E710B50C464FF480718A4243
:1023100003D1A1610068C16904E04FF40071A161BB
:102320000068016AC1F305402070C1F306226270A3
:1023300001F07F02A270402202EA1142E270C1F372
:102340000562227501F0804201F08031C4E9031278
:1023500073B900F0B1FE2070607800F0ADFE6070DF
:10236000A07800F0A9FEA070207D00F0A5FE2075E9
:10237000002010BD10B500680B4641680D480140B3
:10238000080CD870C1F304245C7001F03F049C7009
:10239000C1F34231197052B900F08EFED8705878EE
:1023A00000F08AFE5870987800F086FE9870002041
:1023B00010BD00003FFFFF0010B500680C4601682B
:1023C0000E480140C1F305402070C1F3062363703D
:1023D00001F07F03A370402303EA1141E17052B979
:1023E00000F06AFE2070607800F066FE6070A078F1
:1023F00000F062FEA070002010BD00007F7F7F0013
:1024000070B5040002D0607F10B106E0012070BDFD
:1024100000202077204600F041F8022060772168F4
:10242000CA204862216853204862204600F058FEC6
:10243000FF210028206803D0416204206077E5E78F
:102440008268154B1A40826022689068636818435E
:10245000D4E904352B43184390602268E06810618A
:1024600020680269238942EA034202612068C26847
:1024700022F08002C2602068026C22F48022026492
:102480002068026CA3691A4302642068416201203B
:102490006077002070BD0000BFFF8FFF7047000015
:1024A0002DE9F05F0446007F0D46012844D04FF02F
:1024B000010B84F81CB00220607720680027806838
:1024C0004FEA4060BAB3002852DA287800F0F4FDF1
:1024D000287D00F0F1FDA8782978EA7840EA0140EB
:1024E0006978090241EA02410843297D40EA016610
:1024F000286921680643E8680643CA2048622168C3
:1025000053204862A869FF25B0F5807F20684FF00E
:10251000030A4FF47A7981682CD021F4007181602C
:102520002068C16801F0800161F42071C160FFF78B
:102530001DF880464FE002E00220BDE8F09F002831
:1025400000DBEF70287800F0C0FD0604687800F02A
:10255000BCFD46EA0026A87800F0B7FD0643E878FF
:1025600046EA0046287D00F0B0FD46EA0066BFE777
:10257000EF70ADE721F4807181602068C16801F0DF
:10258000800161F4C071C160FEF7F0FF804605E094
:10259000FEF7ECFFA0EB0800484515D82068C0689E
:1025A000C007F5D02068C6612068816841F4807159
:1025B00081602068816841F480511BE0FEF7D6FFFE
:1025C000A0EB0800484506D92068456284F81DA0A4
:1025D00027770320B1E72068C0688007EED5206820
:1025E00006622068816841F400718160206881681A
:1025F00041F4005181600948016841F400310160F3
:1026000006480830016841F40031016020684562E5
:1026100084F81DB0277700208FE7000000040140F8
:102620002DE9F0470446007F0B46012825D04FF0E6
:10263000010984F81C9002206077587802B300F0FA
:102640003BFD987800F038FD9878D97840EA01454C
:1026500058781978000240EA413005432168CA20C1
:102660004862216853204862204600F039FD002668
:10267000FF274FF0040838BB19E00220BDE8F087BF
:10268000C10603D500F0EF000A305870D87800F08A
:102690001CFD0204587800F018FD42EA00229878E8
:1026A00000F013FD0243187842EA4035D6E70D48A2
:1026B0000540206845602068C16821F08001C16044
:1026C000204600F085F830B12068476284F81D800C
:1026D00026770120D2E72068476284F81D9026778C
:1026E0000020CBE73FFFFF002DE9F0470446007FC5
:1026F0000D46012811D04FF0010A84F81CA00220D9
:1027000060772068002680684FEA406042B1002868
:102710001ADA287800F0D0FC17E00220BDE8F08734
:10272000002800DBEE70287800F0CFFC0204687807
:1027300000F0CBFC42EA0022A87800F0C6FC02437D
:10274000E87842EA00470AE0EE70A878297840EA83
:1027500001476878E978000240EA014007432168B0
:10276000CA204862216853204862204600F0B8FC25
:102770004FF0FF084FF00409C0B914480740206823
:1027800007602068816821F480218160D5E901011A
:10279000084321688A68104388602068C16821F076
:1027A0008001C160204600F013F838B12168C1F8FB
:1027B000248084F81D9026770120AFE72168C1F8B6
:1027C000248084F81DA026770020A7E77F7F7F0064
:1027D00070B504460068C16821F0A001C160FEF731
:1027E000C5FE05464FF47A7607E000BFFEF7BEFE51
:1027F000401BB04201D9032070BD2068C06880062C
:10280000F4D5002070BD70B5040004D094F85100D8
:10281000002510B106E0012070BD84F8505020461C
:1028200000F02EF8022084F851002068016821F0A1
:1028300040010160D4E901010843D4E903121143C6
:10284000084361690843218B01F400710843E16981
:102850000843216A0843A16A084321680860A06907
:10286000042101EA1040616A084321684860216838
:10287000E06A08616565012084F85100002070BDA0
:1028800070474FF0E0210428086903D020F00400CD
:102890000861704740F00400FAE7704710B5401E29
:1028A000B0F1807F01D3012010BD4FF0E0246061C2
:1028B0000F21601700F0BAF90020A0610720206105
:1028C000002010BD10B5FFF7E8FF10BD10B50400E3
:1028D00003D094F8350010B107E0012010BD0020AE
:1028E00084F83400204600F00DF8022084F835000A
:1028F000211D206802F04AFB012084F835000020E9
:1029000010BD000008B501681D48B1F1804F11D01D
:102910001C4A91421DD1016841F00201016000682A
:10292000012200F00200009003211D20FEF758FE56
:102930001D201FE0016841F00101016000680022D4
:1029400000F00100009003211C20FEF749FE1C202E
:1029500010E00D4A914211D1016841F0040101607B
:102960000068012200F00400009003211E20FEF701
:1029700037FE1E20BDE80840FEF727BE08BD000058
:102980002438024000040040000800400168CA6882
:1029900042F00102CA600068016841F00101016073
:1029A00000207047704770B50446006801694FF019
:1029B0000005C943890715D4C168C943890711D4E3
:1029C000E91E01610120207520688069800720468A
:1029D00002D0FFF7E7FF04E000F078F8204600F0AF
:1029E00076F8257520680169C943490717D4C1687D
:1029F000C943490713D46FF0040101610220207517
:102A00002068806910F4407F204602D0FFF7CAFF9B
:102A100004E000F05BF8204600F059F825752068C6
:102A20000169C943090716D4C168C943090712D40B
:102A30006FF008010161042020752068C0698007DB
:102A4000204602D0FFF7AEFF04E000F03FF820463A
:102A500000F03DF8257520680169C943C90617D4FF
:102A6000C168C943C90613D46FF010010161082081
:102A700020752068C06910F4407F204602D0FFF71F
:102A800091FF04E000F022F8204600F020F82575C0
:102A900020680169C943C90708D1C168C943C9078A
:102AA00004D1891E0161204600F012F820680169F6
:102AB000C943490609D4C168C943490605D46FF022
:102AC00040010161204600F01DF870BD704770475D
:102AD00001680948B1F1804F06D0084A914205D1FA
:102AE0004068002807D000470068FAE7044A91428E
:102AF00001D18068F5E77047240000200004004001
:102B000000080040704700001CB5FEF71FFAFEF7F2
:102B100059FA03F079F90D4803F0BEFB012002F0E9
:102B20006BFA00F0C0F800F0AFF84FF47A72134679
:102B30000A21074800F030F8002000900346019079
:102B4000012212210348FEF7E3FA1CBD8150000860
:102B5000400ECF1988000020FEE77047084807495B
:102B6000016008498160084941600849C16008491D
:102B7000016108480168024808470000E52F000885
:102B800094000020712F0008FD2F0008CD2F0008B1
:102B9000B52F0008BC6200082DE9F0411D4614461F
:102BA0000E460746FFF7DAFF22463146384600F068
:102BB00009F80348416B2846BDE8F041084700008A
:102BC000BC6200082DE9F041174D88468AB0E968DB
:102BD00016468847002405940694CDE90746082741
:102BE0000320CDE90107012607200090CDE9034627
:102BF000D5F81CC02346224641463046E047CDE981
:102C00000846CDE90446069405200794CDE9020460
:102C1000CDE90047032307220021AC690120A0472A
:102C20000AB0BDE8F0810000BC6200080907090E87
:102C3000002806DA00F00F0000F1E02080F8141DF3
:102C4000704700F1E02080F80014704770B5002450
:102C500004F1B000C0B2002100F056F900210220BA
:102C600000F052F90021102000F04EF9002501215A
:102C7000002000F049F96D1CEDB2802DF7D3641CE3
:102C8000E4B2082CE4D370BD10B500218D2000F013
:102C90003BF90021142000F037F90021BDE8104075
:102CA000AF2000F031B9A620AFF300807CB501243D
:102CB00005460094002322461C214D480194FEF74E
:102CC00027FA4B480094002301221E210C30019466
:102CD000FEF71EFA46480094002301221D211830F9
:102CE0000194FEF715FA42480094002301221F21A7
:102CF00024300194FEF70CFA0021AE2000F004F914
:102D00000021022000F000F90021102000F0FCF862
:102D10000021402000F0F8F80021812000F0F4F8B4
:102D20000021CF2000F0F0F80021A12000F0ECF805
:102D30000021C82000F0E8F80021A62000F0E4F807
:102D40000021A82000F0E0F800213F2000F0DCF88E
:102D50000021D32000F0D8F80021084600F0D4F874
:102D60000021D52000F0D0F80021802000F0CCF820
:102D70000021D92000F0C8F80021F12000F0C4F8AB
:102D80000021DA2000F0C0F80021122000F0BCF889
:102D90000021DB2000F0B8F80021402000F0B4F85A
:102DA0000021202000F0B0F80021022000F0ACF853
:102DB00000218D2000F0A8F80021142000F0A4F8D4
:102DC0000021A42000F0A0F80021284600F09CF883
:102DD0000021AF2000F098F80021AF2000F094F817
:102DE000FFF734FFBDE87C400021084600F002B840
:102DF0001004002010B50446B031C8B2002100F024
:102E000083F8102040EA1410002100F07DF804F04F
:102E10000F00BDE8104040F00100002100F074B840
:102E20002DE9F04115460E460746FFF7E3FF0F4830
:102E3000002400EB85150121285D00F065F8641C75
:102E4000E4B2102CF7D3761CF1B23846FFF7D2FF6C
:102E500000242819012190F8200000F055F8641C86
:102E6000E4B2102CF5D3BDE8F08100002169000820
:102E70002DE9F041203A00240D468046D7B27F2844
:102E800003D900208D1C8046EDB22946FFF7B2FF22
:102E90000F4E00BF04EB07100121305C00F034F846
:102EA000641CE4B2082CF5D36D1CE9B24046FFF770
:102EB000A1FF002404EB071030440121007A00F048
:102EC00023F8641CE4B2082CF4D3BDE8F0810000C0
:102ED000316300082DE9F04117460E4604460025EF
:102EE0000CE031462046FFF7C3FF0834E4B2782CEB
:102EF00002D90024B61CF6B26D1CEDB27A5D002A30
:102F0000EFD1BDE8F081000070B5054601B10121A7
:102F10001648FEF717FA154800210C38FEF712FA8A
:102F20000024124800210C30FEF70CFA280601D5C7
:102F3000012100E000210D481830FEF703FA0B488C
:102F400001210C30FEF7FEF96806641C050EE4B2A0
:102F5000082CE6D3054801210C38FEF7F3F9BDE84B
:102F6000704001210148FEF7EDB900001C0400206B
:102F70002DE9F0470C4E07469946F06A15460C4677
:102F80008047DFF8288022463946A8F802400848E2
:102F9000FDF7CEF888F8005088F80190716BBDE815
:102FA000F0474FF47A700847BC6200080200002026
:102FB000B000002010B5044CE06A8047616BBDE8AA
:102FC00010404FF47A700847BC62000810B5044CFA
:102FD000E06A8047616BBDE810404FF47A700847A3
:102FE000BC62000810B5044CE06A8047616BBDE824
:102FF00010404FF47A700847BC62000810B5044CCA
:10300000E06A8047616BBDE810404FF47A70084772
:10301000BC620008F8B507461A48002600681A4D39
:1030200010F0F00F20D1174C1C342068C00002D5DE
:10303000FEF708FB0DE0206840F08050206020681B
:1030400000F080500090FEF7FDFA216821F08051D9
:103050002160B0F5C05F07D1B7F5404F04D12868B3
:10306000012640F004002860286820F00100304369
:103070002860286800F00100B04201D00120F8BDAE
:103080000020F8BD08380240003C024010B5094855
:10309000FFF7B2F84FF480710648FFF7DBF800F055
:1030A000C1FA00F03FF90020FDF732FFBDE8104003
:1030B00002F02AB820020020010901EB810100F092
:1030C0000F0000EB4100C0B27047002102E00A3857
:1030D000C0B2491C0A28FAD2090740EA11607047B9
:1030E00070B504460068C168490614D44FF0FF313A
:1030F000C160FEF73BFA05464FF47A7607E000BF61
:10310000FEF734FA401BB04201D9032070BD20689D
:10311000C0684006F4D5002070BD00000346074893
:1031200010B5448844B10021418022460449184624
:10313000FCF7FEFF204610BD002010BD020000205D
:10314000B00000200FB414222DE9F04F87B00C46D8
:1031500012A96846FCF7ECFF9DF8520005906748FD
:103160009DF851809DF850709DF84C60844201D2CA
:1031700014B102E0044600E001242046FDF7DBF92B
:103180005F4A604BFDF7CEF88A46814602F0C8FFE1
:1031900004460D464A465346FDF7BEF800225A4BF8
:1031A000FDF7C0F8DFF864A181468B46DAF80C0021
:1031B000FDF7B0F94A465B46FDF70DF8FDF7C8F993
:1031C000DFF84C91DFF84CB1CAF80C00B0F5F47F91
:1031D00016DBA0F5F470CAF80C0000224E4B204616
:1031E0002946FCF7F8FF04460D4609E000224B464D
:1031F00020462946FDF790F8761C04460D46B6B2E7
:1032000000224B4620462946FDF706FAEED9D9465C
:1032100000224B4620462946FDF7FEF917D800222A
:103220004B4620462946FDF777F87F1C04460D469D
:10323000BFB2EDE700224B4620462946FDF76CF869
:10324000044608F101000D461FFA80F801E0DFF89E
:10325000CC9000224B4620462946FDF7DDF9E9D9FE
:103260000598FDF768F922462B46FCF7B4FFFDF7F9
:103270008EF980B205E03C3808F1010180B21FFAF6
:1032800081F83C28F7D205E0A8F13C017F1C1FFA29
:1032900081F8BFB2B8F13C0FF6D203E0183F761CBC
:1032A000BFB2B6B2182FF9D29DF84D1009B39AF8F3
:1032B0000620114489071CD09DF84B201849491E4F
:1032C000515CB14203D2B6FBF1F201FB12668DF8FC
:1032D0000A008DF809808DF804608DF808701422BA
:1032E00069461098FCF724FF07B0BDE8F00F5DF8C1
:1032F00014FB0B499DF84B200C31E0E7420612000D
:10330000FCA9F1D24D62004000408F401000002027
:103310000018F5400020AC400000F03F00004E4097
:10332000A462000810B5224C92B0607900283CD10C
:103330000DA800F0F1F814220DA901A8FCF7F8FE81
:1033400000234FF4807206A91A48FEF7DCFF9DF8AF
:103350001900C0EB001081009DF81800C0EB40126E
:10336000C2EB002001EB00109DF81A1008449DF8F4
:103370000D10C1EB01118A009DF80C10C1EB411337
:10338000C3EB012102EB01119DF80E201144081A34
:10339000FDF7D1F80022084BFCF7C4FF02F048FC0F
:1033A000FDF7F5F8A0600120607112B010BD0000BB
:1033B00010000020200200200040DF3F2DE9F047F0
:1033C00000248AB0254680B1142201466846FCF7E5
:1033D000AFFE9DF80510BDF800000026DFF8F49060
:1033E000DFF8F4A088460F1812E005A800F094F862
:1033F000142205A9EAE7CEB1B00717D00022534640
:1034000020462946FCF7E7FE761C04460D4636B2F8
:10341000B742F0DCB8F1000F0BD0B80709D09DF827
:1034200003700026DFF8B4807F1E2BE000224B469D
:10343000E6E7DFF8A8809DF80370002608F10C0885
:103440007F1E0DE018F8060025494843FDF773F884
:1034500022462B46FCF7BFFE761C04460D46F6B20C
:10346000B742EFDC10E000BF18F806001C494843E3
:10347000FDF761F822462B46FCF7ADFE761C0446AC
:103480000D46F6B2B742EFDC9DF809109DF80A0030
:10349000C1EB011100EB81029DF808004FF461615E
:1034A00048439DF8041040F2A323594300EBC11098
:1034B0001044FDF740F822462B46FCF78CFE002214
:1034C000084BFCF72FFF02F02BFE0AB0BDE8F047D7
:1034D000FDF75DB850287E4138137E41A462000894
:1034E000805101000040DF3F0A498B68002298426A
:1034F00004D94B7813B14A708B68C01A8B68984214
:1035000002D9322801D28A70704701228A708968F4
:10351000401A70471000002010B586B00446002203
:10352000114802A9FEF748FF00220F480DF10201E1
:10353000FEF720FF0D499DF80530CA88ADF8002040
:10354000632B03D0087840B11BB106E0012008705E
:1035500003E0002008706432CA80142269462046C5
:10356000FCF7E6FD06B010BD200200201000002090
:1035700010B50020FFF722FF04460548FFF71EFFA5
:10358000844202D2C043204410BD201A10BD000066
:103590004002002070B51F4E86B03079002837D128
:1035A0000125A80590FAA0F01B49B0FA80F001EBC4
:1035B0008000C0F880561A4818490024C0E9001459
:1035C00003218160C0E9031444618461FEF718FFA0
:1035D0008DF8035006208DF805408DF802008DF817
:1035E000045000220E480DF10201FFF719F8029471
:1035F000039400220A4802A90494FFF775F80022F8
:1036000004212920FDF7ECFF2920FDF7DEFF3571AD
:1036100006B070BD100000200000474200280040A6
:10362000200200200C484168C943C9070ED00B494D
:10363000012048700A480168C1F38101012903D0C3
:10364000006810F00C0F06D1FDF780BC016841F056
:1036500004010160EEE77047007000401000002098
:1036600008380240AFF3008030B505464FF480744F
:1036700099B021462048FEF7EDFD1F48FEF77DFD7D
:1036800014A8FFF749FF142214A908A8FCF750FD5D
:103690001948142208A92030FCF74AFD0AAB93E828
:1036A00007008DE80700DDE90823294614A8FFF785
:1036B00049FD142214A903A8FCF73AFD002011903B
:1036C00010908DF837009DF816008DF836009DF8A3
:1036D00015008DF835009DF8140013948DF8340012
:1036E0009DF810008DF8480000220DA90248FEF751
:1036F000D7FE19B030BD00002002002070B50920AF
:1037000000F00DFC0546062000F009FC040407202B
:1037100000F005FC44EA0024082000F000FC2043EF
:10372000FCF709FF0022184BFCF7FCFDFCF72FFF0C
:1037300004460021092001F033FA3B2000F0EFFBA2
:1037400040F040013B2001F02BFA3B2000F0E7FB6A
:103750008006FAD40D4800F0DBFC3B2000F0DFFBD4
:1037600040F040013B2001F01BFA3B2000F0D7FB6A
:103770008006FAD42946092001F012FA2046BDE855
:10378000704000F0C5BC000080844E4000A1BC33F6
:10379000012070470349884201D2802070470020F1
:1037A0007047000040DD4A1F014890F8AC007047A8
:1037B000400500202DE9F34F0200724981B04FF01F
:1037C00000000CD0012A7DD10024D1F8EC00254660
:1037D000072854D0082855D0092858D155E08A46E2
:1037E000D1F8C400FCF7A7FE06460F460298FCF786
:1037F000A2FE80468946302000F091FB30F0F900AF
:103800004FF0000401D0604D00E00025272000F0BB
:1038100086FB20F0F800BAF8C810401C0844FCF7FA
:103820008AFE9AF8CA20012A4FF0000222D0564B95
:10383000FCF7D1FC22462B46FCF7CDFC42464B461A
:10384000FCF7C9FC9AF8CC20012A4FF0000213D0F3
:103850005FF00003FCF7BFFC0322FCF744FE324696
:103860003B46FCF7D1FD0022484BFCF75BFD02F024
:1038700057FC7FE00023DBE74FF08043EAE70024BA
:10388000434D04E00024434D01E0434D00243D4EF0
:10389000012056F8F07FB840FCF73CFE02460B468C
:1038A00020462946FCF7B0FD02460B46002036496B
:1038B000FCF7AAFD04460D46F088FCF73CFE00220A
:1038C000364B00E05BE0FCF786FC22462B46FCF71B
:1038D00029FD834600917079001DFCF72CFE80467F
:1038E0003079894600B10220381A8000FCF723FEA7
:1038F000064602988A46C10022487A4201EB8201BC
:1039000090F8FA2090F8F80001EB021100B11420B1
:10391000081A1C30FCF70FFE32465346FCF774FDC4
:1039200002F086F942464B46FCF7FCFC00220746B3
:103930000E461346FCF770FE02D23846314601E0CF
:10394000002001460022164BFCF745FC22462B4680
:10395000FCF7E8FC02460B4658460099FCF73BFC96
:1039600000220A4BFCF7DEFC0E4A0F4BFCF733FC3F
:1039700002F0CCF903B0BDE8F04FFCF708BEBDE89B
:10398000FE8F0000400500200000F03F00408F4007
:103990008084FE4080840E4180841E4100001140DE
:1039A000000020402B8716D9CEF7EF3F70B519499C
:1039B00008601949194801F065FB18481649143088
:1039C00001F060FB15481449283001F05BFB00F062
:1039D000FBFAFFF793FE002000F012FC0D48001DDB
:1039E00000F042F80E4D002404EB4406A85D00F000
:1039F000CBFB70198178407801F0D2F8641CE4B2F6
:103A0000102CF1D3002000F0BFFB0649002081F804
:103A1000AC0070BD50000020FD3D000850060020A5
:103A200064760008400500207CB501240094002342
:103A3000224604210B480194FDF76AFB0025094842
:103A40002B462A461B219438CDE90045FDF760FB43
:103A5000044800231A461A218838CDE90045FDF7AD
:103A600057FB7CBDE005002010B504460368032227
:103A700001210648FDF764FC044863680322012124
:103A8000BDE810400C30FDF75BBC00004C05002089
:103A900070B514460E46054600F076FB304600F041
:103AA00037FB052000F0ACFB0120FDF7BDFA2846EE
:103AB00000F068FA054600F089FEA54201DD00200D
:103AC00070BD012070BD0000F8B500258DF80050D4
:103AD0008E4C8F4E94F8AC0001280AD0022854D1A5
:103AE00004F5887001F082FB94F8AD0001287DD1C7
:103AF000FCE094F8AD00B8B1012846D14021122075
:103B000001F04EF8122000F00AFA8DF800009DF83E
:103B1000000080066BD52021122001F041F894F8B6
:103B2000FE0000287ED090E094F8CC00012834D12B
:103B30003F2000F0F4F98DF800009DF800008007A8
:103B40002BD40B213E2001F02BF810213F2001F057
:103B500027F8704801F04AFB94F8CE00B0B10D2070
:103B600000F0DDF940F040010D2001F019F869483E
:103B7000143001F00BFB306810B1006900B18047D0
:103B800004F8D85F6570A5816581F8BD614814307F
:103B900001F02CFB84F8AC50EDE7B4F8E2105E4F76
:103BA00011B9B4F8E40030B1B4F8E400091AC9B2AC
:103BB0003844E2340EE094F8CA00A0B3322000F09A
:103BC000AEF9A4F8E20000BF14F8E21F6088091AF9
:103BD000C9B2384400F0D0F934F8020B24F8E409F3
:103BE0004C4801F003FB94F8CE0001E082E034E0A1
:103BF00010B30D2000F093F940F040010D2000F0CB
:103C0000CFFF4448143001F0C1FA30680028B7D023
:103C10008668002EB4D094F9DA20B4F8E2100023BC
:103C20003D4801E00FE001E0B047A9E73948012134
:103C3000423800F0A1F9C7E7364884F8AC50143098
:103C400001F0D4FAE1E784F8AC50324801F0CEFA42
:103C50003068002899D0006952E0192000F05FF91F
:103C600040B284F80801010605D5C043401CC0F3EA
:103C70008500474201E0C0F385071A2000F04FF9A4
:103C80002649D4F8B020002F06DA00EB20108A4233
:103C9000384405D99D3804E08A4200EB2010F9D859
:103CA000A438A4F80A01132000F039F984F80C01B3
:103CB0000146194800F060F994F8FE0008B984F84C
:103CC000AC50144801F092FA30680028C2D08568E0
:103CD000002DBFD094F90831B4F90A2194F80C11E1
:103CE00001B0AC46BDE8F0400B4860470821122007
:103CF00000F056FF84F8AC5030680028AAD0006865
:103D00000028A7D001B0BDE8F040004740050020E2
:103D100050000020640600204004002040DD4A1FBF
:103D200070B5334C204694F8AC3090F8AD20B0F824
:103D3000E210B0F8E400A4F58075012B15D0022B39
:103D400012D1002A10D10A1A234694F8E710B3F8CA
:103D5000E430284618448A4243DD00F04BFF34F833
:103D6000E40FE1780844208070BDAAB1012AFBD19C
:103D7000204801F03BFA8021122000F011FF0020C2
:103D800084F8AC001C4800680028EDD0C06800280A
:103D9000EAD0BDE87040004741B938B994F8CA008C
:103DA000A0B1322000F0BBF8A4F8E200B4F8E210B1
:103DB000B4F8E4000A1A94F8E6108A420CDD2844AC
:103DC00000F0DAF834F8E40FA178CBE709480121D4
:103DD000423800F0D1F8E9E7D1B2284400F0CCF83D
:103DE00002E0D1B200F006FF34F8E20F608070BD4F
:103DF0004005002064060020500000202DE9F04717
:103E0000334CDFF8D0904FF0000894F8AC00012854
:103E10002BD0022859D100F0D7F8FFF76FFC002013
:103E200000F0EEF92C4E002505EB4507F05D00F0A3
:103E3000ABF9B8198178407800F0B2FE6D1CEDB294
:103E4000102DF1D3002000F09FF994F8040100F048
:103E5000EFF984F8AC80D9F80000002835D040682C
:103E6000002832D0BDE8F047004794F8AD00D0B943
:103E700084F8D88084F8D980A4F8E480A4F8E2809B
:103E800045460B213E20CE3400F08AFE10213F2013
:103E900000F086FE14F8CE0901280AD084F8AC5050
:103EA0000E4801F0A3F9D9F8000000280DD0C06831
:103EB000D6E70D2000F033F840F040010D2000F06F
:103EC0006FFE064801F062F9EDE7BDE8F0870000FB
:103ED000400500205000002064760008780600208D
:103EE00070B50025012000F04FF9FF21112000F0EE
:103EF00057FE052000F084F900240120FDF794F816
:103F00002C2000F00CF800F00100A040641C0543D8
:103F1000E4B2202CF1D300F059FC284670BD08B55E
:103F20000122694600F004F89DF8000008BD000079
:103F30002DE9F04104460F480E4615460021804603
:103F4000FDF700FA0B4804F07F017C38074600F0CB
:103F500085FE002406E00021384600F07FFE305543
:103F6000641CE4B2AC42F6D34046BDE8F041012106
:103F7000FDF7E8B9E00500200A4601460020FFF7FA
:103F8000D7BF000010B520B1012808D04FF0FF3096
:103F900010BD1120FFF7C3FF4008404210BD084884
:103FA0000849D0F8B00088424FF01B0003D9FFF752
:103FB000B6FF9D3810BDFFF7B2FFA43810BD00005A
:103FC0004005002040DD4A1F10B50120FFF7A7FF84
:103FD00010F0800F07D0002000F0D6F80320FDF786
:103FE00023F8012006E0012000F0CEF80320FDF7C1
:103FF0001BF8002000F0C8F8BDE810400620FDF7CF
:1040000013B8000073B53B4C0546002094F8AD1082
:1040100011B101296BD12DE00020A4F8E4009DF836
:104020000410A4F8E21094F8CA0058B1322000F04D
:10403000B7FD00BF9DF80420501E3F2807D884F824
:10404000E7200BE0012101A800F0D4FDF2E72946AA
:10405000294801F029FF202084F8E70094F8E710B0
:104060002846D03400F0C6FDA08AE17D0844A08235
:1040700020683CE094F8FD0001284FF0330021D087
:10408000FFF74DFF00F0BE013320491C00F088FD12
:104090001D213B2000F084FD9DF8041084F80C11D4
:1040A000222000F07DFD00210E2000F079FD00218E
:1040B0000D2000F075FD0120FFF731FF30F0F80012
:1040C00009D00DE0FFF72BFF00F0BE01332000F018
:1040D00067FD1921DDE700F08DFB0120FCF7A4FF4F
:1040E0009DF80410284600F085FDD4F8000100F08A
:1040F00095FB7CBD40050020400400207047000077
:1041000002490A78824200D00870704720000020DF
:104110000E4910B5C1F8B000FCF70DFA00220C4BA7
:10412000FCF772F9FCF733FA0446C0F307410620A6
:1041300000F036FDC4F30721072000F031FDE1B2A5
:10414000BDE81040082000F02BBD00004005002015
:1041500080844E4070B50D46044600F015F824B139
:10416000012C0DD12946232006E0064890F8CA000C
:10417000002805D129463220BDE8704000F010BD6E
:1041800070BD00004005002010B504460120FFF777
:10419000C6FE1A49000601D5012000E0002081F882
:1041A000AD00C0B2A04227D081F8AD40012C0FD0A5
:1041B00000F00CFB0120FFF7B2FE00F07F010120B0
:1041C00000F0EEFC0021402000F0EAFC30210EE07F
:1041D00000F0FCFA0120FFF7A2FE40F08001012070
:1041E00000F0DEFC0021402000F0DAFC0021BDE8F8
:1041F0001040412000F0D4BC10BD0000400500205C
:1042000010B5040010D00020FFF77AFF2046FFF71A
:1042100075FF0120FFF783FE00F0F8012143BDE8A0
:104220001040012000F0BCBC0120FFF769FFF0E75F
:1042300010B504460120FFF7A7FF064880F80441A7
:104240000CB1342100E01221BDE81040392000F00B
:10425000A7BC00004005002070B504460920FFF708
:104260005EFE06464D20FFF75AFE05462248D0F86E
:10427000B000FFF78FFA06F07F01084340F07000AE
:1042800001062BD5112C02DD45F0070502E005F0F3
:10429000F8052D1DE943490703D0022C0CDA02244E
:1042A0000DE0052C01DA052402E0142C00DD1424B5
:1042B00000F0F001641F05E0112C00DD112400F076
:1042C000F001A41E04F00F000143092000F068FC77
:1042D0002946BDE870404D2000F062BC4FF0FF3130
:1042E0008C4201DA0C4602E00E2C00DD0E2400F0B8
:1042F000F001641CE6E700004005002070B5854C25
:104300000546002694F8AD0010B1012824D124E020
:1043100014F8CE6F4020FFF702FE00F0030040F0DB
:104320000C01402000F03CFC4120FFF7F8FD40F07C
:10433000C101412000F034FC3520FFF7F0FD00F012
:104340003F0020761E210D2000F02AFC0020A072E4
:10435000E072E082A082CE3C9EE094F8FD0001284D
:104360004FF0330027D0FFF7DAFD00F0BE01332015
:10437000491C00F015FC1D213B2000F011FCD4F875
:10438000EC0009284FF031007ED2FFF7C8FD00F0A5
:104390007F01312000F004FC0021302000F000FCFF
:1043A000D4F8EC0009285BD2DFE800F00E19242FC6
:1043B0003A4556565600FFF7B2FD40F04101332012
:1043C00000F0EEFB1921D7E748212F2000F0E8FB91
:1043D000D4F8B000FCF7AFF800224F4B35E0442191
:1043E0002F2000F0DDFBD4F8B000FCF7A4F8002289
:1043F0004A4B2AE044212F2000F0D2FBD4F8B00031
:10440000FCF799F80022464B1FE044212F2000F0D2
:10441000C7FBD4F8B000FCF78EF80022414B14E043
:1044200044212F2000F0BCFBD4F8B000FCF783F847
:1044300000223D4B09E044212F2000F0B1FBD4F8CD
:10444000B000FCF778F80022384BFBF7C4FEFCF70D
:104450009EF8FFF75DFE03E040212F2000F0A0FB57
:1044600094F8FB0094F8FE60012831D01F21112040
:1044700000F096FB4020FFF752FD00F03F01402086
:1044800000F08EFB002100E01CE00F2000F088FB14
:1044900000210D2000F084FB4FF480712448FBF7CD
:1044A00060FE012084F8AC0035B12946214800F0B7
:1044B00065FE204800F06AFE94F8AD0090B116B396
:1044C000052021E0FFF72BFD40F080013120C5E7FA
:1044D0001D21112000F064FB4020FFF720FD00F0BB
:1044E0003301CCE70520FFF78BFE002E10D11148D9
:1044F000D4F8D410143000F041FEBDE870400D48EF
:10450000143000F043BE0620BDE87040FFF778BECF
:1045100070BD0000400500200082BE40005AC4402B
:104520000082CE408057D4408084DE40C058E440B2
:1045300040040020640600202DE9FC5F9B461446E1
:104540008A468046DDF844900D9F0F9EFFF71CFEC3
:10455000380A994D0090B8F1000F06D0B8F1010F5C
:1045600074D1BAF1020F73D9FEE745F8BCAFAC6065
:104570000C986860AE731098E87385F810901498E2
:1045800068741598A874AF812046FBF7D4FF0446E1
:104590000B460191224600208849FBF735FF032294
:1045A000FBF7A1FF80468B460E98FBF7C4FF4246FF
:1045B0005B46FBF7B7FE0022814BFBF7B3FEFBF730
:1045C000E6FFA861224600207E49019BFBF71CFF05
:1045D000FBF7DDFF84B2210A022000F0E1FAE1B22C
:1045E000032000F0DDFA5046FCF77CFD0146122066
:1045F00000F0D6FA0C98FCF775FD0146132000F088
:10460000CFFA2520009900F0CBFAF9B2262000F06D
:10461000C7FA0EB1109900E0FF21322000F0C0FA75
:104620003020FFF77CFC00F06F000EB1002100E0AD
:104630008021084340EA0911302000F0B1FA31200E
:10464000FFF76DFC40F040013120A5E0B2E0FFE74C
:1046500028460AF10708E0E93B840C2C80F809B0F1
:10466000478106731099417380F80E901299C173B7
:104670001399017414994174159985F8FE1001D9A4
:104680000C2402E0062C00D20624B8F1070F03D058
:10469000B8F1080F02D003E00B2C47D00C2C45D00A
:1046A0005FF0000185F8F4101D20FFF738FC4FEA99
:1046B000081141EA4B003043C1B21D2000F070FAEE
:1046C0001E20FFF72CFC00F0080040EA041141EA2C
:1046D00089000E99032202EA11210843C1B21E206B
:1046E00000F05EFA2620FFF71AFC00F0F70195F8BB
:1046F000F40041EAC000C1B2262000F051FA0E9841
:10470000C1B21F2000F04CFA2020009900F048FAB6
:10471000F9B2212000F044FA1EB12220109900F0D5
:104720003FFA95F8FB00012802D00EE00121B9E71D
:104730004420FFF7F4FB40F08001442000F030FA01
:1047400095F8FC10242000F02BFAB8F1090F02D0E4
:104750000321362010E01C49D5F8B00088424FF004
:1047600002014FF0360003D900F01AFA642102E08A
:1047700000F016FA7F213A2000F012FA062C4FF0D2
:1047800031000DD0FFF7CBFB00F0F8013120C91C40
:1047900000F006FA0A213720BDE8FC5F00F000BAFD
:1047A000FFF7BDFB00F0F8013120491D00F0F8F9DA
:1047B0000C21F0E7BDE8FC9F400500200000F03F21
:1047C00000408F4080847E4140DD4A1F10B507487D
:1047D00000F00CFD0548143800F008FD0020FFF73C
:1047E0000FFD0349002081F8AC0010BD64060020D5
:1047F0004005002010B5074800F0F8FC05481438C3
:1048000000F0F4FC0120FFF7FBFC0349002081F8D5
:10481000AC0010BD640600204005002010B5014624
:10482000254800F0ABFC254C94F8AD0010B10128F0
:104830002DD119E04020FFF772FB00F0030040F09B
:104840001001402000F0ACF94120FFF768FB00F0B8
:104850003E01412000F0A4F93520FFF760FB00F095
:104860003F0084F8E60012E094F8FB00012819D01C
:10487000F721112000F094F94020FFF750FB00F0E1
:104880003F0000BF40F04001402000F089F90220C5
:1048900084F8AC00084800F079FCBDE81040032023
:1048A000FFF7AEBCF521112000F07AF94020FFF7A8
:1048B00036FB00F03300E5E75006002040050020FD
:1048C0002DE9FF4F81B01D46DDE90E4BDDE9106893
:1048D0008946DDF854A0129F0198FFF755FC484621
:1048E000FFF7BAFC7548320A0199009231B10129EB
:1048F00072D180F8E890022D54D9FEE700F8B49FF9
:1049000003990461C0E90115868280F81680077654
:1049100080F819A01699C1610398FBF70CFE0022DC
:10492000674BFBF771FDFBF732FE85B2290A0420C5
:1049300000F036F9E9B2052000F032F92046FBF725
:10494000FAFD02460B4600205E49FBF75DFDFBF7D2
:104950001EFE84B2210A022000F022F9E1B20320F7
:1049600000F01EF92520009900F01AF9F1B2262076
:1049700000F016F93020FFF7D2FA00F06F00B8F11E
:10498000000F01D0002100E08021084340EA071118
:10499000302000F005F93120FFF7C1FA40F0400166
:1049A000312078E0ED1DC0E93B5480F8F5B0A0F867
:1049B000F66080F8F880139980F8FB10149A80F85C
:1049C000FC2080F8FA7080F8FDA0169AC0F800214B
:1049D0000C2C02D90C2403E06CE0062C00D2062437
:1049E000072D02D0082D02D003E00B2C08D00C2C90
:1049F00006D0002280F8F4208146012902D00EE082
:104A00000122F7E74420FFF78AFA40F080014420B2
:104A100000F0C6F899F8FC10242000F0C1F81D2021
:104A2000FFF77DFA290141EA4B0040EA0800C1B2D4
:104A30001D2000F0B5F81E20FFF771FA00F00B0002
:104A400040EA041040EA8700C1B21E2000F0A8F836
:104A50002620FFF764FA00F0F70199F8F40041EA24
:104A6000C000C1B2262000F09BF82020009900F081
:104A700097F8F1B2212000F093F8062C4FF03100A6
:104A80000ED0FFF74CFA00F0F8013120C91C00F0FD
:104A900087F80A21372005B0BDE8F04F00F080B854
:104AA000FFF73DFA00F0F8013120491D00F078F8D9
:104AB0000C21EFE705B0BDE8F08F000040050020B5
:104AC00080844E4080847E4170B506468AB00D4693
:104AD0001046FBF730FD00221E4BFBF723FCFBF7D3
:104AE00056FD04463046FFF713FB00200590069064
:104AF000CDE907040521CDE90101039004904FF4AD
:104B00009650002300901A4629461846FFF7D8FE13
:104B10003120FFF704FA00F0BF01312000F040F827
:104B2000F021402000F03CF8A021412000F038F8AE
:104B30002146094800F022FB0849022081F8AC0018
:104B4000054800F023FB0AB00320BDE87040FFF7E2
:104B500057BB000000408F40500600204005002059
:104B600010B50E4C94F8AD00002815D0012813D1D3
:104B7000FA21112000F014F84020FFF7D0F900F0DE
:104B8000FC01402000F00CF8032084F8AC00BDE8E4
:104B900010400720FFF734BB10BD00004005002087
:104BA00013B5012201A900F001F81CBD2DE9F04167
:104BB00004460F480E46154600218046FCF7C2FB0E
:104BC0000B4844F080017C38074600F047F8002489
:104BD00005E0315D384600F041F8641CE4B2AC42B7
:104BE000F7D34046BDE8F0410121FCF7ABBB000024
:104BF000E00500200A4601460020FFF7D7BF30B588
:104C00000024039D846061B14FF40061C1600462BF
:104C100007214462C0E90A41C0E904231DB1446090
:104C200030BDC460F3E74FF48271416030BD0000D5
:104C3000094B00221B6803E05B08521C072A01D2C3
:104C40008B42F9D8302101EAC201D20700D00822F4
:104C50001143C161704700003800002070B5044660
:104C600000680D46016841F040010160FCF75AF907
:104C700020688168C9438907FBD4E9B2C160206814
:104C80008168C943C907FBD1C068C4B2FCF752F9B7
:104C9000204670BD2DE9FF4F83B08B460446109F20
:104CA000FCF740F90525022604F1580004F16409D7
:104CB00004F1700804F17C0ABBF1070F03D0BBF1CB
:104CC0001F0F2ED021E033490A6842F480520A6057
:104CD0000A6822F480520A602E490C310A6842F4B4
:104CE00080520A60096801F4805100912A492DE040
:104CF0004FF40070A0610020009000E000960023B7
:104D00001A4619462046FFF77AFF24492046FFF746
:104D10008FFF2046FDF777FD07B0BDE8F04FFCF7A9
:104D200009B91C49091D0A6842F480420A600A68F0
:104D300022F480420A60174910310A6842F4804226
:104D40000A60096801F48041009115492160CDE9AC
:104D50000065002302225946FCF7DAF9CDE9006527
:104D60000023022248460599FCF7D2F9CDE90065F7
:104D70000023022240460699FCF7CAF90126CDE934
:104D800000650023022239465046FCF7C1F97F1C1A
:104D9000B4D1ADE71438024000300140809698004D
:104DA0000038004010B5FCF7E7FBBDE81040FDF708
:104DB00089BD000030B5244895B0016841F08051AC
:104DC0000160006800F0805014902048016821F4D0
:104DD000C05141F40061016001240520CDE90004C7
:104DE0000220C5030294CDE909054FF440200B9041
:104DF000A0050C906846FCF717FE0F200D900320CD
:104E00000E9000200F901090119001210DA8FCF73A
:104E1000D5FC12A8CDE91245FCF71CFCFCF7B8FD47
:104E20004FF47A71B0FBF1F0FDF738FD0420FDF787
:104E300028FD0320FCF7F4FB00221146501EFCF76E
:104E4000CFFB15B030BD0000243802400070004098
:104E500038B52E48016841F080510160006800F0CB
:104E6000805000902A48016821F4C05141F400614B
:104E7000016026492439086840F480300860234CDA
:104E80004FF400321034012092FAA2F3B3FA83F304
:104E900043F020035B0901D00B6800E0236892FA1D
:104EA000A2F5B5FA85F505F01F0500FA05F52B42C8
:104EB000EAD04FF0807292FAA2F2164BB2FA82F266
:104EC00043F822004FF0007393FAA3F2B2FA82F291
:104ED00042F02002520901D00A6800E0226893FAE9
:104EE000A3F5B5FA85F505F01F0500FA05F52A4288
:104EF000EAD006481C38016841F0030101600168EE
:104F0000C1F381010329FAD138BD000024380240E1
:104F100000700040000047420F48016841F4807172
:104F200001600D4908310A680C4B1A400A6002689A
:104F30000B4B1A400260026822F48022026008686B
:104F400020F47D0008600020091D086005494FF02D
:104F50000060086070470000003802400CC0FF8805
:104F6000FEFFFEEE08ED00E00148FDF71CBD00006D
:104F7000540200200148FDF716BD00008C020020FD
:104F80000148FDF710BD0000C402002070B50268A2
:104F90004FF08046134B144CB04203D0984201D0DE
:104FA000A04205D122F070054A682A43B0420CD0D5
:104FB00098420AD0A04208D00C4B984205D00C4B26
:104FC000984202D00B4B984203D122F44073CA6836
:104FD0001A4302608A68C2620968816201214161E4
:104FE00070BD0000000400400008004000080140BF
:104FF000000C014000100140134910B509684FF43E
:105000007A42B1FBF2F211494FF08043521E0B601D
:105010004FF0FF3303EB8010C86000200861C1E946
:1050200001200846FDF752FC10B109A000F054F928
:105030000648FDF7ABFC002804D0BDE810400AA0EC
:1050400000F04AB910BD00003800002054020020D2
:10505000B6A8CAB1C6F732B3F5CABCBBAFCAA7B0CF
:10506000DCA3A10D0A000000B6A8CAB1C6F732C67B
:10507000F4B6AFD6D0B6CFCAA7B0DCA3A10D0A0054
:1050800000F0B4BE0022026042600272C0E9031266
:1050900070470000074B30B45A6822B10468091BFE
:1050A000116000211172012102610172586030BC4F
:1050B00000F054B86000002070B5124A0025536813
:1050C0001A6912B114680C4414E00268511A15E010
:1050D0000668A64208D2711A016012B11468611AFA
:1050E00011601861026170BD134612692AB1166819
:1050F00021467418002BEBD170BD311B0160186183
:10510000056170BD6000002010B5134C6068002878
:1051100020D0FEF72DFA616800220B68834201D887
:105120000A6001E0181A08600A7204E0016961600F
:10513000C06800B18047606800280BD00168002972
:10514000F4D0017A012905D001210172BDE8104097
:1051500000F004B810BD00006000002010B5064942
:105160000446002008702068FEF7BEF92060BDE804
:105170001040FEF777BA00006000002070B50D46C1
:10518000044600F033F82560656070BD70B50446D4
:10519000FBF7C8FE1CB3144D6868024602E0A0424B
:1051A0001DD000690028FAD161682160207232B1F7
:1051B000107A012807D01168206888420CD2204656
:1051C000FFF768FF0BE0FEF7D3F9696809688142D1
:1051D00000D20846091AEFE72046FFF76DFFBDE849
:1051E0007040FBF7A7BE00006000002070B50546C8
:1051F000FBF798FE1F4C6068011E36D005B3A8422D
:1052000021D1017A0026012907D00069C8B1296897
:10521000606002681144016027E0FEF7A9F929687F
:10522000814200D208466268091A106948B11672B4
:10523000606002681144016001210172FFF78EFF76
:1052400013E0666011E02A680DE0A94209D10969FE
:1052500021B1016108681044086006E00021016185
:1052600003E0084609690029EFD1BDE87040FBF76B
:1052700061BE000060000020034A01460020126861
:105280000A4200D0012070470038014000B52020BC
:10529000FFF7F2FF002810D000F014F80849074B80
:1052A0008A889854521C90B20022888001238A7008
:1052B0004B70FF2800D38A804B7000BDFC02002099
:1052C0003000002002480068C0F30800704700006A
:1052D00004380140FEE700000FB4054B10B503A9E8
:1052E000044A029800F006F910BC5DF814FB0000B7
:1052F000E95D0008680000200FB4084B10B504A950
:1053000002AA039800F0F6F8044602A9002000F073
:1053100074FC204610BC5DF814FB0000FB5B000829
:105320000048704770000020014800687047000086
:105330007000002002E008C8121F08C1002AFAD13C
:1053400070477047002001E001C1121F002AFBD105
:10535000704700000149086070470000700000209D
:105360002DE9FF5F82B00021DDE90430020DDDF898
:1053700040B0034318D044F61050A2F2FF3242432B
:105380001514119801281FD0A5EB0B00401C5FEAF3
:10539000000A4FF000064E4FDFF83891B0465046F5
:1053A00015D5CAF1000413E0119801244AA301287D
:1053B00001D16FEA0B010298119AC0E90031C0E9EE
:1053C000024206B0BDE8F09FCBF10000DFE70446E3
:1053D0000021404A491842EB0450CDE9001012E088
:1053E000E00707D032463B4640464946FAF79AFF67
:1053F0008046894632463B4610461946FAF792FFE8
:1054000006460F466410002CEAD1DDE90401DDE90F
:105410000023BAF1000F06DAFAF784FF42464B4642
:10542000FAF780FF05E0FAF7EFFF42464B46FAF73E
:10543000EBFF04460E460022284BFBF7EDF803D89D
:105440004FF0FF30014607E00022254B2046314651
:10545000FAF7C1FEFBF7EAFA102409E0002C0ADB98
:105460000A220023FBF722F9039B30321A55641EEF
:1054700050EA0102F2D1641C039AC4F111031444EE
:10548000119A012A03D0012208430DD10AE00843F2
:1054900004D000204FF0110B119072E7A3EB0B0525
:1054A0006D1E0DE05B4504DD4FF0000205F10105C6
:1054B00004E003DA4FF00002A5F10105002AECD068
:1054C00002981199C0E90231C0E9004579E700006E
:1054D000000014400000F03F300000000000F043E6
:1054E0000000E03F30380A2801D201207047002038
:1054F000704700002DE9FF4F95B09A468846064652
:105500000025EEE1252877D100242746F94A01211C
:10551000039400E0044316F8013F203B01FA03F036
:105520001042F7D130782A2811D06FF02F0330784D
:10553000A0F13002092A16D8039A44F0020402EBC3
:10554000820203EB42021044761C0390EFE758F806
:10555000042B0392002A03DA504244F400540390CF
:1055600044F00204761C30782E2816D116F8010F6C
:1055700044F004042A280DD06FF02F023078A0F1F7
:105580003003092B09D807EB870302EB4303C71845
:10559000761CF3E758F8047B761C30786C280FD023
:1055A00006DC4C2817D068280DD06A2814D104E0F6
:1055B000742810D07A280FD10DE044F400140AE0CA
:1055C00044F4801401E044F440147278824202D121
:1055D00004F58014761C761C307866280BD013DC1A
:1055E000582877D009DC002875D04528F6D0462801
:1055F000F4D047281AD193E118E0632835D0642805
:1056000079D0652812D18BE1702873D008DC672827
:10561000F1D069286FD06E280DD06F2806D1ACE08C
:1056200073282CD0752874D0782853D052461799F7
:1056300090476D1C54E1C4F30250022809D003289E
:105640000DD0D8F8001004280DD00D6008F1040822
:1056500046E1D8F80010EA17C1E90052F6E7D8F899
:1056600000100D80F2E70D70F0E718F8041B8DF8BC
:10567000001000208DF80100EB46012003E058F8EF
:1056800004BB4FF0FF3061074FF0000102D40DE082
:1056900009F101018946B9420FDA8145F8DB1BF8AF
:1056A00009100029F4D108E009F10101894681427D
:1056B000FADB1BF809100029F6D103985346A0EB3A
:1056C000090721463846179A00F080FA284400EB73
:1056D000090507E044E008E10DE01BF8010B524624
:1056E00017999047B9F10109F7D253462146384638
:1056F000179AF2E039E00A21C4F302524FF0000B8E
:105700000091022A06D058F8040BC117032A09D0C9
:105710000AE023E008F1070020F00702F2E80201A6
:10572000904605E000B2C117042A01D140B2C1176A
:10573000002906DA0A460021404261EB02012D22CF
:1057400002E0220504D52B228DF80420012203E07B
:10575000E20701D02022F7E7914657E00A2100E056
:1057600010214FF0000B00910BE010214FF0000BC7
:1057700044F004040827009103E008204FF0000BD8
:105780000090C4F30252022A05D058F8040B0021FD
:10579000032A08D008E008F1070020F00702F2E829
:1057A0000201904603E080B2042A00D1C0B24FF05B
:1057B000000922072AD53278702A07D0DDF800C008
:1057C0008CF0100C5CEA0B0C05D00EE040228DF83A
:1057D0000420012208E050EA010306D030238DF8AE
:1057E00004308DF8052002229146009B83F00803C7
:1057F00053EA0B030AD150EA010201D1620705D531
:1058000030228DF804204FF001097F1E3278582A8B
:1058100004D039A20C920CAA02920BE03BA2F9E749
:105820005B46009AFAF742FF0C9B9B5C029A521E61
:105830000292137050EA0102F2D1029804A9081AE8
:1058400000F1200B600702D524F4803400E001272A
:105850005F4502DDA7EB0B0000E0002000EB0B0131
:10586000009003984944401A0390E00306D453463D
:105870002146179A039800F0A9F90544002706E08D
:1058800001A85246C05D179990476D1C7F1C4F457B
:10589000F6DBE0030CD553462146179A039800F037
:1058A00095F9054404E030205246179990476D1C45
:1058B0000099481E00900029F5DC08E00298029942
:1058C00052460078491C0291179990476D1CBBF114
:1058D0000001ABF1010BF1DC5BE100F065F905447F
:1058E000761C307800287FF40DAE19B02846BDE84C
:1058F000F08F00000928010030313233343536375B
:10590000383961626364656600000000303132330B
:1059100034353637383941424344454600000000AB
:10592000600700D4062708F1070020F00700F0E820
:105930000223804603F0004C5FEA0C0001D097A0E0
:1059400009E0200501D596A005E0E00701D095A06B
:1059500001E0AFF24C001390307823F0004365284B
:105960000CD006DC452809D046281DD047287FD119
:105970003BE0662818D067287AD136E00021112F45
:1059800001DB112000E0781CCDE9000104A90CA87E
:10599000FFF7E6FCDDE90D010C9A4FF0000B07F173
:1059A0000109109200914EE04FF000400097CDE9C0
:1059B000011004A90CA8FFF7D3FCDDE90D020C9B34
:1059C0000F994FF0000B91461093009211B9791C7A
:1059D00000EB0109B7EB090003D4C0F1FF3B07F16D
:1059E0000109A9EB0700019042E0012F00DA01272D
:1059F0000021112F01DD112000E03846CDE9000122
:105A000004A90CA8FFF7ACFCDDE90D010C9A00918C
:105A10004FF0000BB946109221070FD4009A4A4567
:105A200003DA914601E0A9F10109B9F1010F05DDA1
:105A3000109AA9F10101515C3029F4D0B84202DA80
:105A400010F1040F03DA0121CDE9011010E0002864
:105A500003DC8344A9EB000102E0411C494500DD61
:105A60008946A0EB0B00401C01904FF000400290D3
:105A7000200705D40198484502DB4FF0FF30019024
:105A800000208DF84B0002980DF14B07B0F1004F4C
:105A900025D002200C902B200D90029800280CDAC3
:105AA000404202902D200D9007E00A210298FAF75B
:105AB000E7FD3031029007F8011D0C99481E0C904B
:105AC0000029F2DC02980028EFD1791E0D980870A9
:105AD000307800F0200040F0450007F8020D11A8D2
