:020000040800F2
:10000000B00A00200D01000897320008170100080F
:10001000953200086D0F0008D14D00080000000067
:100020000000000000000000000000001F010008A8
:100030006F0F00080000000023010008B142000813
:1000400027010008270100082701000827010008F0
:100050002701000827010008890F0008D30F0008B6
:10006000E30F0008F30F0008031000082701000841
:1000700027010008270100082701000827010008C0
:1000800027010008270100082701000827010008B0
:1000900027010008270100082701000813100008A5
:1000A00000000000270100082701000827010008C0
:1000B00075440008814400088D44000827010008A9
:1000C0002701000827010008270100082701000870
:1000D00027010008654900082701000827010008DA
:1000E000990F0008D93600082701000827010008E9
:1000F00027010008DFF810D000F0DCFC00480047C2
:10010000D95E0008AFF30080B00A0020064880479F
:1001100006480047FEE7FEE7FEE7FEE7FEE7FEE7EC
:10012000FEE7FEE7FEE7FEE725440008F5000008CD
:1001300040EA01039B0703D009E008C9121F08C069
:10014000042AFAD203E011F8013B00F8013B521EE9
:10015000F9D27047D2B201E000F8012B491EFBD260
:1001600070470022F6E710B513460A4604461946C2
:10017000FFF7F0FF204610BDF0B480EA0102D40F73
:100180004200B2EB410F02D20246084611464A0035
:1001900042D0C30DDDB2C1F3C752AD1A202D35DAFE
:1001A000C1F3160141F4000204B15242C5F1200628
:1001B00002FA06F12A411044B3EBD05F23D0C4B158
:1001C000012DA0EBC35009DCF0BC4FF0004202EA65
:1001D000C352DBB200F5000000F085BB400000F127
:1001E000807000EBC350A0F1807040EAD1704900EC
:1001F00009E0490841EAC071A0EBC35000F50000D6
:10020000400800EBC350F0BC00F064BB6142012227
:1002100002EB4101001BF6E7F0BC704781F00041A2
:10022000AAE780F00040A7E780EA010210B502F0DB
:100230000043400022D04A001FD0010E01EB1261A2
:10024000C0F35600C2F3560240F4000042F400022C
:10025000A0FB022000047F39140400D0401C50EAA7
:10026000124001D44000491EC2B20C0604EBD0106B
:10027000401C4008802A02D003E0002010BD20F07E
:100280000100002900DA0020184310BD30B480EAD4
:10029000010202F0004530F0004221F0004013D08E
:1002A00090B1C30DD40DC2F31601C0F31600E41AC9
:1002B00041F4000140F400027D34914201D3641CFA
:1002C00000E04900002C02DA30BC002070474FF4F7
:1002D00000000023914201D3891A034340084FEAEA
:1002E0004101F7D151B1914202D14FF0004105E0F7
:1002F00002D24FF0010101E06FF0010103EBC450A5
:10030000284430BC00F0E6BA2DE9FE4F804681EA71
:100310000300C00F0C46009021F0004123F000457F
:10032000B8EB0200A94105D24046214690461C4642
:100330000B46024623F00040104347D0270DC7F379
:100340000A00C3F30A510290401A019040286BDA68
:10035000C3F3130040F4801B0098924620B10023A1
:10036000D2EB030A63EB0B0B01985946C0F1400234
:10037000504600F07EFA06460D4650465946019A10
:1003800000F096FA10EB08006141002487EA115250
:1003900084EAE7731A4340D0009A62B3019A012AB3
:1003A0004FEA075215DC001B61EB02014FF00042DF
:1003B00002EA0752CDE90042001C41F580113246A5
:1003C0002B4600F0CDFA03B0BDE8F08F4046214641
:1003D000F9E7001B61EB0201001C41F580130018D6
:1003E0005B412018A2F5001747EB030140EAD570E6
:1003F000B6196D4111E06D084FEA360645EAC07541
:100400004FEA0752001B61EB0201001C41F580110D
:1004100049084FEA30000019514132462B4603B0DB
:10042000BDE8F04F00F08DBA009801224000002393
:10043000D0EB020263EBE073009821464FEAE074D0
:10044000B8EB000061EB0401E9E783F000435BE7F0
:1004500081F0004158E72DE9FE4F81EA030404F0E2
:10046000004421F0004100944FF0000B23F00043C2
:1004700050EA01045ED052EA03045BD0C3F30A548D
:10048000C1F30A552C44A4F2F3340194A0FB0254A6
:10049000C1F3130141F48011C3F3130343F4801338
:1004A00001FB024400FB034E840A970A44EA81548C
:1004B00047EA8357A4FB076802958D0A05FB078569
:1004C0004FEA932C04FB0C542705029D4FEA065873
:1004D00047EA1637B5EB08056EEB070C870E920E50
:1004E00047EA811742EA8312A7FB0201B6EB0B0130
:1004F00064EB00042B0D43EA0C335E1844EB1C50F4
:10050000DA465146E7FB0201C5F313044FEA0B3309
:1005100043EA14534FEA0432019C43EA0603A4F170
:100520000C040294009CCDE900B400F019FA03B069
:10053000BDE8F08F00200146F9E72DE9F04D81EA92
:10054000030404F0004B21F0004514464FF0000A6C
:1005500023F0004150EA050220D054EA01021DD0E8
:10056000C5F30A570246C5F31303C1F31300C1F3E1
:100570000A5640F4801543F48013A7EB0608101BBD
:10058000D64608F2FD3873EB050002D308F10108E6
:1005900001E092185B41B8F1000F03DA0020014638
:1005A000BDE8F08D00204FF48011064684460EE031
:1005B000171B73EB050705D3121B63EB05030643FB
:1005C0004CEA010C49084FEA300092185B4150EAAE
:1005D0000107EDD152EA030012D082EA040083EA57
:1005E0000501084305D0101BAB4106D201220023B0
:1005F00006E000224FF0004302E06FF001025310CA
:100600001AEB06004CEB085110EB0A0041EB0B0112
:10061000BDE8F04D00F095B970B521F000430343FB
:100620000CD0C1F30A550024D5EB040564EB040398
:10063000D617AD1AB34102DB0020014670BD201869
:1006400041EB025170BD96230022114600F04BB9D8
:100650000EB5C10F80EAE0700844CA07002140F2DD
:1006600033438DE80E000A460B4600F079F903B0DB
:1006700000BD0EB540F2334102910021CDE90011D9
:100680000A460B4600F06CF903B000BD20F00040B4
:10069000C10DC0F3160040F400007F2901DA0020EC
:1006A0007047962903DCC1F19601C840704796391E
:1006B0008840704770B5C1F30A5201F0004500242C
:1006C000C1F3130140F2FF3341F480119A4201DA81
:1006D000002070BD40F233439A42A2F2334203DC61
:1006E000524200F0D5F800E090402C43F1D0404257
:1006F00070BDC1F30A5210B5C1F3130140F2FF33CC
:1007000041F480119A4201DA002010BD40F23343D7
:100710009A42A2F2334203DC524200F0B9F810BD13
:10072000904010BD00F0004230F000400AD0C10DF2
:1007300001F56071C0F3160042EA0151C20840079A
:1007400011437047002001467047000030B5041E79
:1007500071F1000404DB4FF00044404264EB0101FE
:10076000141E73F1000405DB1C464FF00043524297
:1007700063EB04038B4208BF824230BD30B5041ED8
:1007800071F1000404DB4FF00044404264EB0101CE
:10079000141E73F1000405DB1C464FF00043524267
:1007A00063EB0403994208BF904230BD01F000435F
:1007B00030B421F0004150EA010206D00A0DA2F542
:1007C0006072C1F31301002A02DC30BC00207047C4
:1007D000440F44EAC104C100E01830BC00EBC25031
:1007E00000F078B830B50B460146002020220124E5
:1007F00009E021FA02F59D4205D303FA02F5491BEF
:1008000004FA02F52844151EA2F10102F1DC30BD04
:100810002DE9F05F0546002092469B468846064635
:10082000814640241BE0284641464746224600F0C8
:100830002FF853465A46C01A914110D31146184614
:10084000224600F016F82D1A67EB01084F462246A3
:100850000120002100F00DF817EB00094E41201E89
:10086000A4F10104DFDC484631462A464346BDE890
:10087000F09F202A04DB203A00FA02F100207047A2
:100880009140C2F1200320FA03F3194390407047CE
:10089000202A04DB203A21FA02F00021704721FAD5
:1008A00002F3D040C2F1200291400843194670473C
:1008B000202A06DBCB17203A41FA02F043EAE07324
:1008C00006E041FA02F3D040C2F120029140084311
:1008D000194670470029A8BF7047401C490008BF4F
:1008E00020F00100704710B4B0FA80FC00FA0CF060
:1008F00050EA010404BF10BC704749B1CCF1200498
:1009000021FA04F411FA0CF118BF01212143084324
:10091000A3EB0C01CB1D4FEA00614FEA102042BF50
:10092000002010BC704700EBC35010440029A4BF46
:1009300010BC7047401C490008BF20F0010010BCEB
:10094000704710B5141E73F1000408DA401C41F121
:10095000000192185B411A4301D120F0010010BD43
:100960002DE9F04D92469B4611B1B1FA81F202E0B9
:10097000B0FA80F220329046FFF77BFF04460F4624
:1009800040EA0A0041EA0B0153465A46084313D095
:10099000114653EA010019D0C8F140025046FFF752
:1009A00077FF05460E46504659464246FFF761FF1F
:1009B000084305D0012004E020463946BDE8F08D0B
:1009C0000020054346EAE0762C4337430A98630546
:1009D000E40AA0EB08000022FD0A44EA47540A306A
:1009E00002D500200146E9E7010510196941DDE95A
:1009F000084500196941BDE8F04DA2E72DE9F04135
:100A0000054621F000400C46284309D0C4F30A50A3
:100A100040F23341884205DD28462146BDE8F08199
:100A20002846FBE740F2FE31884210DC0CDB4FEA3F
:100A3000043040EA155050EA053105D0104804F062
:100A4000004101430020E9E700200146E6E7A0F26B
:100A500033404642C6F1400228462146FFF709FFCF
:100A600007468846284621463246FFF711FF43468F
:100A70003A46FFF766FF3246BDE8F041FFF7F9BEA0
:100A80000000F03FC1F30A52C1F3130140F2FF33FB
:100A900041F480119A4202DA00200146704740F288
:100AA00033439A42A2F2334202DC5242FFF7F0BED5
:100AB000FFF7DFBE064C074D06E0E06840F001039B
:100AC00094E8070098471034AC42F6D3FFF716FBC2
:100AD000E8850008088600082DE9F04D00231A4635
:100AE0001B1A8A4103DB00200146BDE8F08DC1F3EB
:100AF0000A52C1F3130141F480154FF0000BD107E6
:100B000002D100186D41521E0027044640F2FF1129
:100B1000384601EB620A3E468046024600204FF40A
:100B20008011FFF7B5FEC2197141BB1846EB0100F9
:100B3000B4EB030C75EB000C04D3E41A65EB000571
:100B400017460E46241908F101006D4180463428ED
:100B5000E3DDF91946EB0600091BA84103D24FF06B
:100B6000FF32134601E0002213461BEB070046EB61
:100B70000A51BDE8F04DFFF7E4BE000010B50021BA
:100B8000044800F069F803480221BDE810400C3029
:100B900000F062B87000002070B50446006801687B
:100BA000C94349061CD4816821F00101816000F02D
:100BB00077FE05460FE000BF00F072FE401B0228E2
:100BC00009D9E06C40F01000E064206D40F00100B5
:100BD0002065012070BD20680068C0434006EBD549
:100BE000002070BDF8B50026044600960068016834
:100BF000C94349062AD5816841F001018160144842
:100C000014490068B0FBF1F000EB400000E0401E2A
:100C100000900028FBD100F043FE054611E000BF24
:100C200000F03EFE401B02280BD9E06C40F01000A3
:100C3000E064206D40F00100206584F848600120E8
:100C4000F8BD20680068C0434006E9D40020F8BD24
:100C50004400002040420F00064A10B51378002BD4
:100C600007D10123137000F01DF8BDE8104000F01B
:100C700003B810BD5C000020094800214FF020623D
:100C80008160C1604162C162C0E90D214FF48062A0
:100C90004261C163012281618262C16100F090BB47
:100CA000880000207CB50C460E4905460C480860BB
:100CB0000D49086840F400700860086800F400708E
:100CC0000090084800F0F6FA601C08D0002100915E
:100CD0000B46019103222146284600F0B0F97CBD65
:100CE0000024014088000020203802402DE9FF4701
:100CF0004FF00008012494FAA4F0324EB0FA80F0CC
:100D0000CDF80080CDF80480CDF8088046F820406A
:100D10002D4D2D4B3435022090FAA0F2B2FA82F21A
:100D200042F02002520901D01A6800E02A6890FAC5
:100D3000A0F7B7FA87F707F01F0704FA07F73A4258
:100D4000EAD0214D2035286840F4007028602868DA
:100D5000CDE9001400F4007003900620029069466B
:100D60001A4800F003FA194F3868816841F0010110
:100D70008160384600F047FC4FF0FF31384600F004
:100D8000EFFB384600F018FB1FFA80F938688168DD
:100D900021F0010181600098102801D0112802D1B2
:100DA0000A4800F087FA286820F40070286094FA56
:100DB000A4F1B1FA81F146F8218004B04846BDE8BB
:100DC000F087000000004742003802408800002001
:100DD000014840687047000000000020034A127874
:100DE0000AB1FFF783BF0020704700005C000020BD
:100DF0002DE9F04100211548FFF7F0FF144C208049
:100E0000FFF737FC6FF00B052A46FFF705FC114F83
:100E10004FF0663632463B46FFF71DFBFFF7C6FC38
:100E200060600A4802210C30FFF7D8FF6080FFF7AE
:100E300020FC2A46FFF7F0FB32463B46FFF70BFB50
:100E4000FFF7B4FCA060BDE8F08100007000002056
:100E50000000002066660A4010B5040001D002F0D0
:100E6000F3FE0148C47010BD1400002072B60248A1
:100E70004178491C417070471000002004494878AF
:100E8000401E10F0FF00487000D162B670470000AD
:100E90001000002030B51B4D85B02878A0B103F0BC
:100EA0005DFA00BF4FF0FF300090052306220721B6
:100EB000154803F075F903F0D3F82878002801D11C
:100EC0000120287005B030BD00F0F8FC03F0F8F9FF
:100ED00002F072FE0024009401230322122102A8D2
:100EE000019400F0ACF8009400230322082102A82A
:100EF000019400F0A4F800F0D1FB00F0BFFB00F07B
:100F0000C5FBCFE710000020880500201CB5002499
:100F100000942346012203211348019400F08FF826
:100F2000114800940023012218210C30019400F094
:100F300086F80120CDE900040B4800231A462D2134
:100F4000183000F07CF80121074800F00DF9064840
:100F500001210C3000F008F9BDE81C4002480121D5
:100F6000183000F001B90000DC000020FEE77047F7
:100F7000002104E000BF00BF00BF00BF491C814248
:100F8000F8D3704700F092BB10B502F05DFEBDE8EB
:100F90001040012000F0A8BB10B502F055FE4FF440
:100FA000806000F0A1FB4FF4006000F09DFB4FF467
:100FB000805000F099FB4FF4005000F095FB4FF487
:100FC000804000F091FBBDE810404FF4004000F07D
:100FD0008BBB10B502F038FEBDE81040022000F0D7
:100FE00083BB10B502F030FEBDE81040042000F0D5
:100FF0007BBB10B502F028FEBDE81040082000F0D1
:1010000073BB10B502F020FEBDE81040102000F0C8
:101010006BBB10B502F018FE202000F065FB4020ED
:1010200000F062FB802000F05FFB4FF4807000F066
:101030005BFBBDE810404FF4007000F055BB7CB581
:10104000DDE90645CDE9004500F002F87CBD000071
:10105000F0B587B00546DDE90C760170481C6AD012
:1010600001F00F04012000FA04F46C80334C11F0FD
:10107000F00F1FD0C1F30311012925D002292DD073
:10108000032935D02E496960216841F02001216093
:10109000216801F02001059169880091AF72022159
:1010A000CDE9027172B3032A2ED0022A2FD0012B70
:1010B00035D035E023496960216841F001012160A4
:1010C000216801F00101E6E71F496960216841F0EC
:1010D00002012160216801F00201DCE71B4969601F
:1010E000216841F004012160216801F00401D2E788
:1010F00017496960216841F008012160216801F009
:101100000801C8E7002000E0032001900FE0012B58
:1011100002D0019104960AE012200190FAE7112012
:101120000190012A03D13146284600F013F86946A0
:10113000686800F0E5FA07B0F0BD00001C38024016
:101140000014024000000240000402400008024077
:10115000000C024090F90020521C04D0CAB2418811
:10116000406800F098BB7047FFF7F4BFF8B5002463
:10117000009490F848202546012A12D0012280F8D8
:1011800048204A681F23072A0DD20668376C521E72
:1011900002EB820293409F430B6893401F433764E6
:1011A00035E00220F8BD0D2A0BD20768FE6BD21F76
:1011B00002EB820293409E430B6893401E43FE6302
:1011C00025E0132A0BD20668B76B0D3A02EB8202B8
:1011D00093409F430B6893401F43B76317E0066833
:1011E000192A0AD2776B133A02EB820293409F438B
:1011F0000B6893401F43776309E0376B193A02EBA2
:10120000820293409F430B6893401F4337630A68F1
:1012100007230A2A0AD20668776902EB4202934042
:101220009F438B6893401F4377611CE0142A0BD2C5
:1012300007683E690A3A02EB420293409E438B687C
:1012400093401E433E610EE01A2A0BD80768FE68E1
:10125000143A02EB420293409E438B6893401E4334
:10126000FE6000E000BF0A68102A01D0112A17D1E1
:101270000D4A13681B0213D4136843F40003136070
:10128000096810290CD10949094A0968B1FBF2F132
:1012900001EB8101490000E0491E00910029FBD1CA
:1012A00080F848502046F8BD042701404400002043
:1012B00040420F0070B504000BD0E06C40F002001B
:1012C000E0642046FFF768FC06004FF0000502D0FE
:1012D00065E0012070BD21686FF01F000860206884
:1012E0004168314A11404160206881682F4A1140AD
:1012F000816000BF2068C1686FF31401C16020687D
:10130000016901F0404101612068416901F04041FB
:101310004161206881696FF30B0181612068C169B7
:101320006FF30B01C1612068016A6FF30B01016269
:101330002068416A6FF30B0141622068816A6FF394
:101340000B0181622068C16A6FF30B01C1622068E2
:10135000016B174A114001632068416B01F0404165
:1013600041632068816B01F0404181632068C16B5B
:1013700001F04041C1632068016C01F0404101640B
:101380002068416C6FF3150141640A48016821F43B
:1013900000010160204600F0E1F82565E56484F86D
:1013A0004850304670BD000000003CF88CF0808052
:1013B00000800FFE042701400068806D7047000028
:1013C000F8B504004FF0000503D0E06C002610B122
:1013D00010E00120F8BD26655B4884F8486001688C
:1013E00041F001010160006800F00100009020461A
:1013F00000F0B5F8E06CC00678D4E06C20F48850BA
:1014000040F00200E06451480168626821F4403114
:10141000114301606169E0684FF40073084393FA77
:10142000A3F3E26BB3FA83F3216A9A4011430843B2
:10143000022191FAA1F1626AB1FA81F102FA01F195
:101440000843616B102902D0A36B1943084323683A
:1014500019684FF48077C943490629D5A169D4F8A2
:101460001CC00843A168D4F810E041EA0C01BE4555
:101470000CD0BEF1010F09D04FF0000C41EA0C0175
:10148000D4F82CC0BCF1010F02D00AE0BC46F5E74D
:101490006AB3E26C42F02002E264226D42F0010283
:1014A00022655A68DFF8A8C002EA0C020A435A60B3
:1014B00021688A68274B1A4002438A602169B94231
:1014C00024D0012922D021680A6B22F0F8720A6325
:1014D00021688968204A1140814227D12665E06C45
:1014E00020F0020040F00100E0642AE028E0FFE77D
:1014F0004FF4604C226B9CFAACFCBCFA8CFC521E84
:1015000002FA0CF20A4342F40061CAE721680A6B4E
:101510004FF0F87722F0F873A26A97FAA7F7B7FAB4
:1015200087F7521EBA4013430B63D1E7E06C20F0FB
:10153000020040F01000E064206D40F001002065E2
:1015400001252846F8BD000020380240042701404C
:10155000FF16FCFC8DF1FFC0FEFF80BF7047704797
:101560002DE9F041044600680D4681684FF0000700
:1015700049050BD58068C00508D5E06C40F0200017
:10158000E06484F848700120BDE8F08100F088F93B
:1015900006460FE0681C0DD025B100F081F9801BD4
:1015A000A84207D9E06C40F00400E06484F8487079
:1015B0000320E9E7206800688007EBD5A06918B927
:1015C00021686FF012000860E06C40F40070E06485
:1015D0002068816811F0405F13D1616A89B9016B9D
:1015E00011F0F87F02D0806840050AD4E06C20F446
:1015F0008070E064E06CC00403D4E06C40F0010053
:10160000E0640020C0E710B5044690F848000128C7
:1016100022D0012084F848002046FFF7E3FA002892
:101620001BD1E16C40F20162914341F48071E164AD
:1016300021684A68520505D5E26C22F4005242F452
:101640008052E264E26CD3044FF0000206D5236DB1
:1016500023F00603236502E0022010BD226584F812
:1016600048206FF022020A6021688A6812F0405F09
:10167000F3D18A6842F080428A6010BD0248416816
:1016800041F0010141607047002004E002484168D8
:1016900041F0040141607047002004E002484168C5
:1016A00041F0020141607047002004E031B500F0D4
:1016B000F7F8044600F0F4F80099001B8842F9D3CB
:1016C00038BD0000002118B904E04008491CC9B227
:1016D0000128FAD1034850F82100002800D0004723
:1016E0007047000044010020044910B50A68024216
:1016F00002D00860FFF7E6FF10BD000014040140AF
:101700002DE9F84FDFF864B100234FF0010C4FF0E2
:10171000030A4FF00F090BF1040EA0E00CFA03F6D8
:10172000324072D04C68022C01D0122C0ED1DC0851
:1017300000EB8408D8F820405D07EF0E09FA07F5A2
:10174000AC430D69BD402543C8F8205007685D00D3
:1017500091F804800AFA05F408F00308A74308FA90
:1017600005F848EA0708C0F800804F68012F05D047
:10177000022F03D0112F01D0122F11D18768D1F879
:101780000C80A74308FA05F848EA0708C0F8088063
:101790004768B7430E79C6F300169E403E43466045
:1017A000C668A6438C68AC403443C4604C68E4000F
:1017B00054D52F4C256845F001052560246823F099
:1017C000030504F0010400942A4C2544AF689C07EB
:1017D000240F09FA04F6B743274EB04201D1002680
:1017E00015E0264EB04201D1012610E0244EB04251
:1017F00001D102260BE0234EB04201D1032606E0C0
:10180000214EB04202D1042601E027E00526A64081
:101810003E43AE60DBF800405D464E689443F603FD
:1018200000D514432C60DEF8004075464E689443A2
:10183000B60300D514432C600C4D08352C684E6857
:101840009443F60200D514432C60084D0C352C68E7
:101850004E689443B60200D514432C605B1C0A68A2
:1018600032FA03F47FF45AAFBDE8F88F0004014068
:101870002038024000000140000002400004024005
:1018800000080240000C02400010024000690840BD
:1018900000D0012070470AB1816170470904FBE75D
:1018A00001480068704700004800002002480168B5
:1018B000491C0160704700004800002010B503205B
:1018C00000F048F8002000F005F800F017F80020BC
:1018D00010BD000010B5044607484FF47A71006847
:1018E000B0FBF1F001F0A4F900222146501E00F0F7
:1018F00011F8002010BD000044000020704700F0E7
:101900001F02012191404009800000F1E020C0F851
:1019100000117047F0B40E4B1B680C46C3F3022352
:10192000C3F10705042D00D90425191D072901D28B
:10193000002300E0DB1E012606FA05F1491E2140C6
:1019400099409E40761E16403143F0BC01F0A4BC85
:101950000CED00E0064900F0070208684FF6FF03AF
:10196000184040EA0220034A104308607047000014
:101970000CED00E00000FA050248006800F4C050D9
:1019800070470000007000402DE9F84F06460078CF
:10199000C00775D0DFF84C810027D8F80000C000E0
:1019A0000BD4D8F8001041F08051C8F80010D8F8D6
:1019B0000000012700F0805000904B4C2068C005CB
:1019C00010D4206840F480702060FFF769FF05465E
:1019D00005E000BFFFF764FF401B64284ED8206875
:1019E000C005F7D53F4D243D286800F0C041706820
:1019F00000F0C0428A4209D0C0F30141032905D159
:101A00002968890302D50120BDE8F88F354C1034D0
:101A1000216811F440314AD000F44030884246D069
:101A20003078C00743D020684FF4000292FAA2F148
:101A3000B1FA81F14FEA810C2C494FF0010A8C4434
:101A400020F44030CCF880A692FAA2F2B2FA82F2E8
:101A500001EB82010023C1F880362060C00526D545
:101A6000FFF71EFF81464FF4007B0AE0FFF718FFE7
:101A7000A0EB090141F28830814202D90320C3E77B
:101A80002EE09BFAABF0B0FA80F040F04001BAEBE8
:101A9000511F01D1296800E021689BFAABF2B2FA2C
:101AA00082F202F01F020AFA02F00142DED07068F0
:101AB000C0F30141032906D1296800F0C04021F09C
:101AC000C041014329602068716801F44031084336
:101AD00020602FB1D8F8001021F08051C8F8001014
:101AE000002091E724380240007000400000474287
:101AF0002DE9F047DFF8BC8105460E46D8F8000016
:101B000000F00100B04214D2012E05D1D8F8001027
:101B100041F00401C8F80010D8F8001021F00101CC
:101B20003143C8F80010D8F8000000F00100B042BE
:101B300071D12878604C800705D52068A96820F00D
:101B4000F000084320602878C00771D05A4A5A4BE9
:101B500069680120083A2C33022910D003292ED0BD
:101B600001292FD05FEA402797FAA7FCBCFA8CFC2A
:101B70004CF0200C5FEA5C1C04D0126803E04FF4C8
:101B80000037F1E71A6897FAA7F3B3FA83F303F083
:101B90001F039840024262D0206820F003000843EF
:101BA0002060FFF77DFE6968074641F28830022910
:101BB00010D003291CD00129814626D034E04FF0F3
:101BC0000077D1E70227CFE7FFF76AFEC11B49453F
:101BD00001D926E081462068C0F381000228F3D1B4
:101BE00026E000BFFFF75CFEC11B494501D918E0A4
:101BF00081462068C0F381000328F3D118E000BFBC
:101C0000FFF74EFEC11B49450BD82068C0F3810089
:101C10000128F5D10CE022E0FFF742FEC11B494547
:101C200002D90320BDE8F087206810F00C0FF3D133
:101C3000D8F80010404601F00101B14211D9012E3F
:101C400003D1016841F004010160016821F0010144
:101C500031430160006800F00100B04201D0012072
:101C6000E0E72878400705D52068E96820F4E060BF
:101C7000084320602878000706D52068296920F4E9
:101C8000605040EAC100206000F052F82168F02264
:101C900092FAA2F201F0F001B2FA82F2D140074AC0
:101CA000515CC840064908600020FFF713FE002081
:101CB000B8E70000003C024008380240516F0008BD
:101CC00044000020014800687047000044000020E4
:101CD00008480949006809684FF4E06292FAA2F2E4
:101CE00001F4E061B2FA82F2D140044A515CC8408A
:101CF000704700004400002008380240616F00086F
:101D000008480949006809684FF4605292FAA2F243
:101D100001F46051B2FA82F2D140044A515CC840E9
:101D2000704700004400002008380240616F00083E
:101D30001E4A116801F00C00042813D0082813D0A3
:101D40000C2813D0101F006800F460414FF460406D
:101D500090FAA0F0B0FA80F0C1404FF40040491C66
:101D60008840704712487047124870474FF470130C
:101D700093FAA3F301F47010B3FA83F3D8400E4B37
:101D800001F440011268185C4FF4400393FAA3F386
:101D9000B3FA83F3D940491CD20301D5054A00E0C8
:101DA000034A5043B0FBF1F070470000083802408E
:101DB0000024F40000127A00486F00082DE9F84F63
:101DC00007460078FB4EFC4DC0074FF0010428D0B9
:101DD000F848083001684FF40038C1F38101022946
:101DE00007D00168C1F3810103291BD10068C0033A
:101DF00018D598FAA8F0B0FA80F040F02000400919
:101E000001D0306800E0286898FAA8F1B1FA81F1B1
:101E100001F01F0104FA01F108425CD07868002843
:101E20007BD058E0786801280AD008B1052811D085
:101E3000306820F480303060306820F4802002E088
:101E4000306840F480303060786828B3FFF728FDB0
:101E500081460BE0306840F480203060F0E700BF3E
:101E6000FFF71EFDA0EB0900642872D898FAA8F0CD
:101E7000B0FA80F040F02000400901D0306800E066
:101E8000286898FAA8F1B1FA81F101F01F0104FA6B
:101E900001F10842E4D01EE0FFF702FD814605E0B3
:101EA000FFF7FEFCA0EB09006428DED898FAA8F042
:101EB000B0FA80F040F02000400901D0306800E026
:101EC000286898FAA8F1B1FA81F101F01F0104FA2B
:101ED00001F10842E4D13878DFF8E08280074FF062
:101EE000000B4FF002095FD5B24808300168C1F31A
:101EF0008101012907D00168C1F3810103291CD1A7
:101F00000068C00319D499FAA9F0B0FA80F040F043
:101F10002000400902D0306801E086E0286899FA84
:101F2000A9F1B1FA81F101F01F0104FA01F10842AF
:101F30002BD0F868012878D127E0F868A8B394FA84
:101F4000A4F0B0FA80F048F82040FFF7A9FC8246E0
:101F500006E066E1FFF7A4FCA0EB0A00022884D8A3
:101F600099FAA9F1B1FA81F141F02001490901D0B2
:101F7000316800E0296899FAA9F0B0FA80F000F021
:101F80001F0004FA00F00142E4D08A48001D0168F5
:101F90004FF4F85393FAA3F33A69B3FA83F321F4B5
:101FA000F8519A401143016025E0FFE794FAA4F14B
:101FB000B1FA81F148F821B0FFF772FC824605E0E2
:101FC000FFF76EFCA0EB0A000228C8D899FAA9F026
:101FD000B0FA80F040F02000400901D0306800E005
:101FE000286899FAA9F1B1FA81F101F01F0104FA08
:101FF00001F10842E4D138784FF4007AC0067CD56C
:102000006C480830006810F00C0F0FD0B9694FF41D
:102010008070002972D090FAA0F0B0FA80F048F8F1
:102020002040FFF73DFC00907EE087E09AFAAAF09E
:10203000B0FA80F040F02000400901D0306800E0A4
:1020400028689AFAAAF1B1FA81F101F01F0104FAA5
:1020500001F1084202D0B86900286FD05548396AAA
:10206000001D006800F4604081421AD9084601F062
:10207000F7FA002862D14F48001D01683A6A21F43E
:1020800060411143016001684FF07F4393FAA3F36D
:10209000FA69B3FA83F321F07F419A40114301605A
:1020A00018E04448001D026822F460420A430260BE
:1020B00001684FF07F4393FAA3F3FA69B3FA83F30D
:1020C00021F07F419A4011430160386A01F0C8FA5B
:1020D0000028CFD14FF4604191FAA1F1386AB1FAEA
:1020E00081F1C8404FF40041401C81403148083024
:1020F0000068F02200F0F00001E070E040E092FAA9
:10210000A2F2B2FA82F2D0402D4A105CC1402D48B2
:1021100001600020FFF7DEFB61E000BFFFF7C0FBBE
:102120000099401A02287CD89AFAAAF0B0FA80F0F6
:1021300040F02000400902D0306801E0BCE128688E
:102140009AFAAAF1B1FA81F101F01F0104FA01F142
:102150000842E3D01748001D01683A6A21F4604143
:102160001143016001684FF07F4393FAA3F3FA69CA
:10217000B3FA83F321F07F419A40114301602EE0CE
:1021800090FAA0F0B0FA80F048F820B0FFF788FB92
:10219000009005E0FFF784FB0099401A0228C2D89E
:1021A0009AFAAAF0B0FA80F040F0200040090BD073
:1021B00030680AE0003802403438024000004742EC
:1021C000516F00084400002028689AFAAAF1B1FA79
:1021D00081F101F01F0104FA01F10842DAD13878E7
:1021E000000753D5786948B394FAA4F0B0FA80F0A8
:1021F00008EB8000C0F88046FFF752FB009005E036
:10220000FFF74EFB0099401A02288CD899FAA9F0E2
:10221000B0FA80F040F04000B4EB501F02D13068BB
:1022200001E08EE0286899FAA9F1B1FA81F101F094
:102230001F0104FA01F21042E2D027E094FAA4F15F
:10224000B1FA81F108EB8101C1F880B6FFF728FBF4
:10225000009005E0FFF724FB0099401A022870D88F
:1022600099FAA9F0B0FA80F040F04000B4EB501FAA
:1022700001D1306800E0286899FAA9F1B1FA81F13A
:1022800001F01F0104FA01F21042E3D1387840074F
:102290007BD59B484FF000090068C0000AD49848DD
:1022A000016841F08051016000684FF0010900F0C1
:1022B0008050009093480168C90511D4016841F429
:1022C00080710160FFF7ECFA009005E0FFF7E8FA93
:1022D0000099401A642834D88A480068C005F5D5AA
:1022E000B86801280AD008B1052811D0286820F460
:1022F00080702860286820F4806002E0286840F43C
:1023000080702860B86848B3FFF7CAFA00900DE003
:10231000286840F480602860F0E700BFFFF7C0FA4B
:102320000099411A41F2883081420AD89AFAAAF0FB
:10233000B0FA80F040F04000B4EB501F02D130689A
:1023400001E095E028689AFAAAF1B1FA81F101F06A
:102350001F0104FA01F21042E0D022E0FFF7A0FAD8
:10236000009007E0FFF79CFA0099411A41F288308B
:1023700081427DD89AFAAAF0B0FA80F040F040008D
:10238000B4EB501F02D1306801E012E028689AFADD
:10239000AAF1B1FA81F101F01F0104FA01F2104231
:1023A000E0D1B9F1000F04D05548016821F0805107
:1023B0000160786AE8B3DFF84891A9F11C09D9F8FF
:1023C0000010C1F38101032976D002284FF08071FB
:1023D0004FF0007A58460BD091FAA1F1B1FA81F191
:1023E00048F82100FFF75CFAB046074656466DE014
:1023F0004FF0807191FAA1F1B1FA81F18A0042495E
:102400005050FFF74DFAB3468046564606E000BFEF
:10241000FFF746FAA0EB0800022854D896FAA6F077
:10242000B0FA80F040F02000400903D0DBF8000053
:1024300001E061E0286896FAA6F1B1FA81F101F0B5
:102440001F0104FA01F10842E2D1D7E90A103A6B00
:10245000D9F80030014323F47D031A431143C9F82E
:1024600000104FF0807090FAA0F0B0FA80F000E019
:1024700029E0810024480C50FFF712FA074604E0D7
:10248000FFF70EFAC01B02281DD896FAA6F0B0FA84
:1024900080F040F02000400902D0DBF8000000E0AE
:1024A000286896FAA6F1B1FA81F101F01F0104FA49
:1024B00001F10842E4D01FE020E000BFFFF7F0F98F
:1024C000C01B022802D90320BDE8F88F96FAA6F0B7
:1024D000B0FA80F040F02000400902D0D8F80000A7
:1024E00000E0286896FAA6F1B1FA81F101F01F0127
:1024F00004FA01F10842E1D10020E5E70120E3E719
:1025000024380240007000400000474270472DE927
:10251000F0470446007F01281CD0012626770220C0
:1025200060772168CA204862216853204862206889
:10253000816821F4806181602068816821F4804194
:102540008160FFF7ADF9054600274FF0FF084FF413
:102550007A790EE00220BDE8F087FFF7A1F9401B71
:10256000484506D92168C1F8248003206077277781
:10257000F1E72068C0684007EFD52168C1F82480E2
:10258000667727770020E6E77047000010B504461D
:1025900000688168C9040CD5C068C00509D520460B
:1025A000FFF7F2FF2068C16801F0800161F4C0719B
:1025B000C1602068816889040CD5C068800509D590
:1025C0002046FFF7A3FF2068C16801F0800161F495
:1025D0002071C16003494FF400300860012060772A
:1025E00010BD0000140401402DE9F0470446007FAF
:1025F000012822D04FF0010884F81C800220607767
:102600002268CA2050622268532050622068002548
:10261000FF26B1F5807F81684FF0030A4FF47A7985
:102620000ED021F4007181602068816821F400518E
:102630008160FFF735F9074624E00220BDE8F08706
:1026400021F4807181602068816821F4805181606B
:10265000FFF726F9074604E0FFF722F9C01B4845BB
:1026600009D82068C068C007F6D00FE0FFF718F956
:10267000C01B484506D92068466284F81DA025770E
:102680000320DBE72068C0688007EFD5206846623A
:1026900084F81D8025770020D0E710B50C464FF454
:1026A00080718A4203D1A1610068C16904E04FF4DE
:1026B0000071A1610068016AC1F305402070C1F397
:1026C0000622627001F07F02A270402202EA1142EB
:1026D000E270C1F30562227501F0804201F08031A1
:1026E000C4E9031273B901F00DF82070607801F0AD
:1026F00009F86070A07801F005F8A070207D01F065
:1027000001F82075002010BD10B500680B46416827
:102710000D480140080CD870C1F304245C7001F02E
:102720003F049C70C1F34231197052B900F0EAFFC6
:10273000D870587800F0E6FF5870987800F0E2FF03
:102740009870002010BD00003FFFFF0010B500682A
:102750000C4601680E480140C1F305402070C1F3EA
:102760000623637001F07F03A370402303EA114145
:10277000E17052B900F0C6FF2070607800F0C2FF2F
:102780006070A07800F0BEFFA070002010BD0000B7
:102790007F7F7F0070B5040002D0607F10B106E03B
:1027A000012070BD00202077204600F041F8022073
:1027B00060772168CA204862216853204862204619
:1027C00000F0B4FFFF210028206803D041620420FC
:1027D0006077E5E78268154B1A408260226890684E
:1027E00063681843D4E904352B431843906022688A
:1027F000E068106120680269238942EA03420261AD
:102800002068C26822F08002C2602068026C22F454
:10281000802202642068026CA3691A430264206863
:10282000416201206077002070BD0000BFFF8FFF74
:10283000704700002DE9F05F0446007F0D46012837
:1028400044D04FF0010B84F81CB002206077206860
:10285000002780684FEA4060BAB3002852DA28782F
:1028600000F050FF287D00F04DFFA8782978EA7825
:1028700040EA01406978090241EA02410843297DA2
:1028800040EA0166286921680643E8680643CA20D1
:102890004862216853204862A869FF25B0F5807F0F
:1028A00020684FF0030A4FF47A7981682CD021F424
:1028B000007181602068C16801F0800161F42071BD
:1028C000C160FEF7EDFF80464FE002E00220BDE868
:1028D000F09F002800DBEF70287800F01CFF060452
:1028E000687800F018FF46EA0026A87800F013FF89
:1028F0000643E87846EA0046287D00F00CFF46EAE9
:102900000066BFE7EF70ADE721F480718160206859
:10291000C16801F0800161F4C071C160FEF7C0FFC1
:10292000804605E0FEF7BCFFA0EB0800484515D83F
:102930002068C068C007F5D02068C661206881683B
:1029400041F4807181602068816841F480511BE00E
:10295000FEF7A6FFA0EB0800484506D920684562AF
:1029600084F81DA027770320B1E72068C06880079E
:10297000EED5206806622068816841F400718160AC
:102980002068816841F4005181600948016841F480
:102990000031016006480830016841F400310160EF
:1029A0002068456284F81DB0277700208FE700007B
:1029B000000401402DE9F0470446007F0B46012842
:1029C00025D04FF0010984F81C90022060775878D8
:1029D00002B300F097FE987800F094FE9878D978CA
:1029E00040EA014558781978000240EA4130054331
:1029F0002168CA204862216853204862204600F0BE
:102A000095FE0026FF274FF0040838BB19E002208E
:102A1000BDE8F087C10603D500F0EF000A3058701A
:102A2000D87800F078FE0204587800F074FE42EA8C
:102A30000022987800F06FFE0243187842EA403591
:102A4000D6E70D480540206845602068C16821F040
:102A50008001C160204600F085F830B120684762EF
:102A600084F81D8026770120D2E72068476284F829
:102A70001D9026770020CBE73FFFFF002DE9F047B0
:102A80000446007F0D46012811D04FF0010A84F85A
:102A90001CA0022060772068002680684FEA406012
:102AA00042B100281ADA287800F02CFE17E0022044
:102AB000BDE8F087002800DBEE70287800F02BFEE0
:102AC0000204687800F027FE42EA0022A87800F0AD
:102AD00022FE0243E87842EA00470AE0EE70A87856
:102AE000297840EA01476878E978000240EA014025
:102AF00007432168CA204862216853204862204663
:102B000000F014FE4FF0FF084FF00409C0B914485C
:102B10000740206807602068816821F48021816077
:102B2000D5E90101084321688A681043886020685C
:102B3000C16821F08001C160204600F013F838B16F
:102B40002168C1F8248084F81D9026770120AFE722
:102B50002168C1F8248084F81DA026770020A7E70B
:102B60007F7F7F0070B504460068C16821F0A00136
:102B7000C160FEF795FE05464FF47A7607E000BF88
:102B8000FEF78EFE401BB04201D9032070BD2068C5
:102B9000C0688006F4D5002070BD70B5040004D074
:102BA00094F85100002510B106E0012070BD84F8B2
:102BB0005050204600F02EF8022084F85100206882
:102BC000016821F040010160D4E901010843D4E922
:102BD00003121143084361690843218B01F400711A
:102BE0000843E1690843216A0843A16A0843216850
:102BF0000860A069042101EA1040616A0843216865
:102C000048602168E06A08616565012084F8510028
:102C1000002070BD70474FF0E0210428086903D000
:102C200020F004000861704740F00400FAE77047A4
:102C300010B5401EB0F1807F01D3012010BD4FF0D0
:102C4000E02460610F21601700F026FB0020A061E6
:102C500007202061002010BD10B5FFF7E8FF10BD70
:102C600010B5040003D094F8350010B107E001203E
:102C700010BD002084F83400204600F00DF802203A
:102C800084F83500211D206801F006FC012084F83D
:102C90003500002010BD000008B502682149B2F1DE
:102CA000804F11D0204B9A421DD1086840F002009D
:102CB00008600868012200F00200009003211D2036
:102CC000FEF728FE1D201FE0086840F001000860A4
:102CD0000868002200F00100009003211C20FEF78C
:102CE00019FE1C2010E0114B9A4211D1086840F0E7
:102CF000040008600868012200F00400009003212D
:102D00001E20FEF707FE1E20BDE80840FEF7F7BDB7
:102D10000749C968002903D001B05DF804EB0847F2
:102D200008BD0000243802400004004000080040B4
:102D3000240000200168CA6842F00102CA600068ED
:102D4000016841F00101016000207047704770B5D3
:102D50000446006801694FF00005C943890715D48E
:102D6000C168C943890711D4E91E0161012020759A
:102D7000206880698007204602D0FFF7E7FF04E063
:102D800000F078F8204600F076F825752068016993
:102D9000C943490717D4C168C943490713D46FF021
:102DA00004010161022020752068806910F4407FD1
:102DB000204602D0FFF7CAFF04E000F05BF820468F
:102DC00000F059F8257520680169C943090716D430
:102DD000C168C943090712D46FF0080101610420DA
:102DE00020752068C0698007204602D0FFF7AEFF3B
:102DF00004E000F03FF8204600F03DF8257520681B
:102E00000169C943C90617D4C168C943C90613D4A7
:102E10006FF010010161082020752068C06910F46E
:102E2000407F204602D0FFF791FF04E000F022F837
:102E3000204600F020F8257520680169C943C907BC
:102E400008D1C168C943C90704D1891E0161204660
:102E500000F012F820680169C943490609D4C16825
:102E6000C943490605D46FF040010161204600F0D6
:102E700021F870BD7047704702680B49B2F1804F6E
:102E800006D00A4B9A4205D1486800280BD000476B
:102E90000868FAE7064B9A4201D18868F5E70969A4
:102EA000002900D00847704724000020000400409B
:102EB00000080040704770B5040004D094F8390051
:102EC000002510B106E0012070BD84F8385020467E
:102ED00000F020F8022084F839002068C16821F44D
:102EE0000051C160204601F0E3FB2068016921F434
:102EF000904101612068416921F02A014161206807
:102F0000C16841F40051C160E563012084F83900D3
:102F1000002070BD7047000090F83930012B01D0BF
:102F2000122B2CD139B332B390F83830012B26D084
:102F3000012380F8383081628285C2850021C16317
:102F400090F83920122A18D05FF0220280F8392038
:102F500080F838100168CA6842F48072CA6001685B
:102F60004A6942F001024A610068C16841F02001EB
:102F7000C16000207047012070473222E6E702203E
:102F80007047000010B586B014216846FDF7E9F8D7
:102F90000E48016841F00201016000680C4C00F02D
:102FA000020005900122C0212046FEF774FCC020DB
:102FB00000901120019001200290022003906946A8
:102FC0002046FEF79DFB06B010BD00001C380240F5
:102FD000000402402DE9F05F8B4600210170364D60
:102FE00091468046012280212846FEF754FC0120AC
:102FF00000F016F98026012240212846FEF74BFCFE
:103000000120FDF7B5FF4C460027012000F056F8DF
:103010004FF47A7A07E0641EE4B201D204270BE091
:103020005046FDF7A5FF40212846FEF72FFC00285B
:10303000F1D0002000F042F80320FDF799FF802135
:103040002846FEF723FC20B198F80000304388F8AA
:103050000000002240212846FEF71DFC0120FDF75C
:1030600087FF7608C7D1002000F0DAF8BBF1000F27
:103070001FD0012280212846FEF70DFC0120FDF71C
:1030800077FF012240212846FEF705FC0520FDF7C9
:103090006FFF002240212846FEF7FDFB0122802120
:1030A0002846FEF7F8FB1420FDF762FF3846BDE81E
:1030B000F09F0022DEE700000004024010B586B059
:1030C000044614216846FDF74CF840200090012C7E
:1030D00001D0112000E00020019001200290022088
:1030E000039069460248FEF70BFB06B010BD0000D6
:1030F0000004024010B5114C012280212046FEF749
:10310000CAFB0120FDF734FF012240212046FEF7D3
:10311000C2FB0120FDF72CFF002280212046FEF794
:10312000BAFB0A20FDF724FF002240212046FEF7CB
:10313000B2FBBDE810400A20FDF71ABF00040240B0
:1031400010B5114C002240212046FEF7A4FB0120BF
:10315000FDF70EFF002280212046FEF79CFB012098
:10316000FDF706FF012240212046FEF794FB0A20CE
:10317000FDF7FEFE012280212046FEF78CFBBDE814
:1031800010400A20FDF7F4BE000402402DE9F04192
:103190000025224E074680243C4201D1002200E057
:1031A000012280213046FEF776FB0120FDF7E0FE8C
:1031B000012240213046FEF76EFB0520FDF7D8FEC8
:1031C000002240213046FEF766FB0120FDF7D0FECD
:1031D0006408E1D1012280213046FEF75CFB012228
:1031E00040213046FEF757FB0120FDF7C1FE0120CC
:1031F00000F016F880213046FEF748FB00B10125AB
:10320000002240213046FEF746FB1420FDF7B0FEB9
:10321000002000F005F82846BDE8F08100040240D7
:1032200010B586B0044614216846FCF79AFF80204A
:103230000090012C01D0112000E00020019001201D
:1032400002900220039069460248FEF759FA06B040
:1032500010BD00000004024010B5FDF71BFEFDF795
:1032600055FE02F0F7FB0A4803F036FE012001F09C
:1032700049F9FDF783FC02F0DCFB00F04AF800F0AE
:1032800039F8BDE810404FF4E13001F087BB000091
:103290008D450008FEE770470907090E002806DA89
:1032A00000F00F0000F1E02080F8141D704700F1DD
:1032B000E02080F80014704770B5002404F1B000DD
:1032C000C0B2002100F086F90021022000F082F94E
:1032D0000021102000F07EF900250121002000F0DF
:1032E00079F96D1CEDB2802DF7D3641CE4B2082C83
:1032F000E4D370BD10B500218D2000F06BF90021E2
:10330000142000F067F90021BDE81040AF2000F064
:1033100061B9A620AFF300807CB501240546009476
:10332000002322461C214D480194FDF788FE4B489E
:103330000094002301221E210C300194FDF77FFE32
:1033400046480094002301221D2118300194FDF706
:1033500076FE42480094002301221F21243001946C
:10336000FDF76DFE0021AE2000F034F900210220AF
:1033700000F030F90021102000F02CF9002140204D
:1033800000F028F90021812000F024F90021CF204D
:1033900000F020F90021A12000F01CF90021C82034
:1033A00000F018F90021A62000F014F90021A8204F
:1033B00000F010F900213F2000F00CF90021D3208B
:1033C00000F008F90021084600F004F90021D5209A
:1033D00000F000F90021802000F0FCF80021D92045
:1033E00000F0F8F80021F12000F0F4F80021DA20D4
:1033F00000F0F0F80021122000F0ECF80021DB20B2
:1034000000F0E8F80021402000F0E4F8002120203E
:1034100000F0E0F80021022000F0DCF800218D200F
:1034200000F0D8F80021142000F0D4F80021A420E6
:1034300000F0D0F80021284600F0CCF80021AF20A1
:1034400000F0C8F80021AF2000F0C4F8FFF734FF07
:10345000BDE87C400021084600F002B8340400209A
:1034600010B50446B031C8B2002100F0B3F8102006
:1034700040EA1410002100F0ADF804F00F00BDE8A0
:10348000104040F00100002100F0A4B82DE9F04107
:1034900015460E460746FFF7E3FF0F48002400EBF2
:1034A00085150121285D00F095F8641CE4B2102C0C
:1034B000F7D3761CF1B23846FFF7D2FF0024281963
:1034C000012190F8200000F085F8641CE4B2102C73
:1034D000F5D3BDE8F0810000597500082DE9F041F1
:1034E000203A00240D468046D7B27F2803D9002019
:1034F0008D1C8046EDB22946FFF7B2FF0F4E00BF8C
:1035000004EB07100121305C00F064F8641CE4B2A5
:10351000082CF5D36D1CE9B24046FFF7A1FF00244B
:1035200004EB071030440121007A00F053F8641CCA
:10353000E4B2082CF4D3BDE8F0810000696F000804
:103540002DE9F0478046002608981D4691468A4698
:103550003446470821E0281B401EC1B20A2002F071
:10356000BFFDB9FBF0F00A21B0FBF1F201FB120044
:1035700026B9691E8C4201DA30B101263030C2B260
:1035800007FB0480C0B203E007FB0480C0B2202226
:103590005146FFF7A3FF641CE4B2AC42DBD3BDE8A5
:1035A000F0872DE9F04117460E46044600250CE051
:1035B00031462046FFF792FF0834E4B2782C02D956
:1035C0000024B61CF6B26D1CEDB27A5D002AEFD174
:1035D000BDE8F08170B5054601B101211648FDF73F
:1035E000C3FD154800210C38FDF7BEFD002412482C
:1035F00000210C30FDF7B8FD280601D5012100E0BF
:1036000000210D481830FDF7AFFD0B4801210C30AB
:10361000FDF7AAFD6806641C050EE4B2082CE6D38B
:10362000054801210C38FDF79FFDBDE870400121E0
:103630000148FDF799BD00004004002010B5064880
:1036400000F0F0FF05484178002903D000214170C7
:103650000121017010BD0000200400203C0000206A
:10366000F8B507461A48002600681A4D10F0F00F0A
:1036700020D1174C1C342068C00002D5FEF77CF91D
:103680000DE0206840F080502060206800F08050FD
:103690000090FEF771F9216821F080512160B0F5AA
:1036A000C05F07D1B7F5404F04D12868012640F02C
:1036B00004002860286820F0010030432860286852
:1036C00000F00100B04201D00120F8BD0020F8BD9B
:1036D00008380240003C024010B50948FEF756FF8A
:1036E0004FF480710648FEF77FFF00F0ADFA00F05E
:1036F0002BF90020FDF7B0FBBDE8104000F050BFF3
:1037000084010020010901EB810100F00F0000EBB2
:103710004100C0B27047002102E00A38C0B2491C23
:103720000A28FAD2090740EA1160704770B50446CA
:103730000068C168490614D44FF0FF31C160FEF73C
:10374000AFF805464FF47A7607E000BFFEF7A8F819
:10375000401BB04201D9032070BD2068C0684006FC
:10376000F4D5002070BD00000FB414222DE9F04FF5
:1037700087B00C4612A96846FCF7DAFC9DF85200A7
:10378000059067489DF851809DF850709DF84C60F9
:10379000844201D214B102E0044600E00124204634
:1037A000FCF767FF5F4A604BFCF755FE8A4681468F
:1037B00003F08AF904460D464A465346FCF745FE97
:1037C00000225A4BFCF747FEDFF864A181468B4686
:1037D000DAF80C00FCF73CFF4A465B46FCF794FD28
:1037E000FCF768FFDFF84C91DFF84CB1CAF80C0029
:1037F000B0F5F47F16DBA0F5F470CAF80C000022D7
:103800004E4B20462946FCF77FFD04460D4609E055
:1038100000224B4620462946FCF717FE761C04463C
:103820000D46B6B200224B4620462946FCF7A6FFBD
:10383000EED9D94600224B4620462946FCF79EFF8A
:1038400017D800224B4620462946FCF7FEFD7F1C78
:1038500004460D46BFB2EDE700224B4620462946FE
:10386000FCF7F3FD044608F101000D461FFA80F84D
:1038700001E0DFF8CC9000224B4620462946FCF7B9
:103880007DFFE9D90598FCF7F4FE22462B46FCF7AC
:103890003BFDFCF72EFF80B205E03C3808F101014A
:1038A00080B21FFA81F83C28F7D205E0A8F13C016C
:1038B0007F1C1FFA81F8BFB2B8F13C0FF6D203E0CB
:1038C000183F761CBFB2B6B2182FF9D29DF84D1032
:1038D00009B39AF80620114489071CD09DF84B20A3
:1038E0001849491E515CB14203D2B6FBF1F201FB0B
:1038F00012668DF80A008DF809808DF804608DF845
:103900000870142269461098FCF712FC07B0BDE855
:10391000F00F5DF814FB0B499DF84B200C31E0E7EC
:1039200042061200FCA9F1D24D62004000408F40D7
:10393000140000200018F5400020AC400000F03FCB
:1039400000004E40306F000810B5224C92B06079F4
:1039500000283CD10DA800F0F1F814220DA901A80F
:10396000FCF7E6FB00234FF4807206A91A48FEF725
:1039700094FE9DF81900C0EB001081009DF818001E
:10398000C0EB4012C2EB002001EB00109DF81A10B2
:1039900008449DF80D10C1EB01118A009DF80C1030
:1039A000C1EB4113C3EB012102EB01119DF80E2085
:1039B0001144081AFCF75DFE0022084BFCF74BFD92
:1039C00001F0C8FFFCF795FEA0600120607112B005
:1039D00010BD000014000020840100200040DF3FE3
:1039E0002DE9F04700248AB0254680B11422014613
:1039F0006846FCF79DFB9DF80510BDF80000002609
:103A0000DFF8F490DFF8F4A088460F1812E005A85C
:103A100000F094F8142205A9EAE7CEB1B00717D058
:103A20000022534620462946FCF76EFC761C0446CD
:103A30000D4636B2B742F0DCB8F1000F0BD0B80734
:103A400009D09DF803700026DFF8B4807F1E2BE0BC
:103A500000224B46E6E7DFF8A8809DF803700026B9
:103A600008F10C087F1E0DE018F8060025494843B0
:103A7000FCF7FFFD22462B46FCF746FC761C04466D
:103A80000D46F6B2B742EFDC10E000BF18F80600B2
:103A90001C494843FCF7EDFD22462B46FCF734FC5D
:103AA000761C04460D46F6B2B742EFDC9DF80910CD
:103AB0009DF80A00C1EB011100EB81029DF808009E
:103AC0004FF4616148439DF8041040F2A323594329
:103AD00000EBC1101044FCF7CCFD22462B46FCF74E
:103AE00013FC0022084BFCF7B6FC02F0EDFF0AB015
:103AF000BDE8F047FCF7FDBD50287E4138137E41FC
:103B0000306F0008805101000040DF3F0A498B6898
:103B10000022984204D94B7813B14A708B68C01ABE
:103B20008B68984202D9322801D28A7070470122EC
:103B30008A708968401A70471400002010B586B05A
:103B400004460022114802A9FEF700FE00220F4899
:103B50000DF10201FEF7D8FD0D499DF80530CA8828
:103B6000ADF80020632B03D0087840B11BB106E00C
:103B70000120087003E0002008706432CA8014221B
:103B800069462046FCF7D4FA06B010BD8401002037
:103B90001400002010B50020FFF722FF044605485E
:103BA000FFF71EFF844202D2C043204410BD201AFA
:103BB00010BD0000A401002070B51F4E86B0307902
:103BC000002837D10125A80590FAA0F01B49B0FACA
:103BD00080F001EB8000C0F880561A481849002494
:103BE000C0E9001403218160C0E9031444618461C9
:103BF000FEF7D0FD8DF8035006208DF805408DF8B6
:103C000002008DF8045000220E480DF10201FEF76B
:103C1000D1FE0294039400220A4802A90494FEF7FC
:103C20002DFF002204212920FDF774FE2920FDF735
:103C300066FE357106B070BD1400002000004742DA
:103C400000280040840100200C484168C943C9078E
:103C50000ED00B49012048700A480168C1F3810168
:103C6000012903D0006810F00C0F06D1FDF712B93E
:103C7000016841F004010160EEE770470070004008
:103C80001400002008380240AFF3008030B505462C
:103C90004FF4807499B021462048FEF7A5FC1F48D8
:103CA000FEF735FC14A8FFF749FF142214A908A851
:103CB000FCF73EFA1948142208A92030FCF738FA1C
:103CC0000AAB93E807008DE80700DDE908232946E1
:103CD00014A8FFF749FD142214A903A8FCF728FA39
:103CE0000020119010908DF837009DF816008DF887
:103CF00036009DF815008DF835009DF814001394DA
:103D00008DF834009DF810008DF8480000220DA9B0
:103D10000248FEF78FFD19B030BD0000840100207D
:103D200010B500F0E7F902F019FF02F0CFFFBDE88F
:103D300010404FF47A5000F0CFB970B50446FF2020
:103D4000002240F231150FE0A35C5840082306061C
:103D500002D585EA400000E040005B1EC0B213F0CF
:103D6000FF03F4D1521CD2B28A42EDD370BD0000E1
:103D700010B5FCF768FC0449FCF756FABDE81040A2
:103D80000249FCF783BA00000000C84200FF7F47E9
:103D900010B5FCF758FC0549FCF746FA0449FCF756
:103DA00075FABDE810400349FCF738BA00002F430C
:103DB00000FF7F470000344230B4029C23B1012B46
:103DC00006D030BC80207047234630BC00F004B8D9
:103DD000234630BC00F040B82DE9FC41984615461A
:103DE0000E46074600F0EEF8040025D16DB1012D16
:103DF00008D0022D03D08024FFF7A2F929E042F673
:103E0000104004E042F60D4001E042F6064000F0AA
:103E1000E7F8040010D100F0C5F804000CD14246C8
:103E20000021684600F086F8040005D10022012137
:103E300001A800F07FF80446FFF782F94CB9BDF8FD
:103E40000000FFF7A5FF3860BDF80400FFF790FF02
:103E500030602046BDE8FC812DE9FC411D46174637
:103E60008846064600F0AEF8040034D15FB1012F59
:103E700006D0022F01D080242DE042F2164004E04B
:103E800042F20B4001E04FF4105000F0A9F804009A
:103E900008D020E000F086F8040008D03846FDF78E
:103EA00067F801E04FF47A776D1EEDB2F2D20DB1F2
:103EB00024B110E00424FFF743F91AE00022114670
:103EC000684600F037F805460022012101A800F0FD
:103ED00031F840EA0504FFF733F954B9BDF80000A2
:103EE000FFF756FF3060BDF80400FFF741FFC8F848
:103EF00000002046BDE8FC8100B50448FDF738F815
:103F00004CF250305DF804EBFDF732B8A0860100AA
:103F100038B50446FFF736F80548447000F02FF82E
:103F20004CF25030FDF724F8684600F064F838BDD4
:103F30005A0000207CB50D46044600216846FFF774
:103F400049F8B8B9002211460DF10100FFF742F817
:103F500080B90022294601A8FFF73CF850B968460D
:103F600002219DF80450FFF7E8FEA84201D002208C
:103F700000E00020BDF8001049BA21807CBD10B5DA
:103F800000F020F8044643F2A20000F029F80443B0
:103F9000FFF7D6F81CB94CF25030FCF7E9FF204689
:103FA00010BD000010B5FFF7A5F8054801214078C5
:103FB000BDE8104001EB4000C0B2FFF7E7B80000D9
:103FC0005A00002010B5FFF795F804484078BDE886
:103FD00010404006000EFFF7D9B800005A0000203C
:103FE00070B50446000AFFF7D1F80546E0B2FFF7C6
:103FF000CDF8284370BDF8B50546FFF7E3FF064648
:104000004FF45E50FFF7ECFF50EA060411D1FFF7C2
:10401000C9FF04000DD1642200216846FFF78AFF22
:10402000040006D1002201210DF10200FFF782FFFA
:104030000446FFF785F81CB900984FEA3040286025
:104040002046F8BD10B54420FFF762FF002804D0D9
:10405000FFF766FE01490120087010BD5A000020DC
:104060007CB5012400940023224604210B480194CE
:10407000FCF7E5FF002509482B462A461B2194380A
:10408000CDE90045FCF7DBFF044800231A461A215E
:104090008838CDE90045FCF7D2FF7CBD040600203E
:1040A00010B586B0044614216846FCF75AF8802003
:1040B0000090012C01D0112000E00020019001208F
:1040C00002900220039069460248FDF719FB06B0F2
:1040D00010BD000000040240002208E0002100BFE3
:1040E00000BF00BF00BF491C0829F8D3521C824200
:1040F000F4D3704710B586B014216846FCF731F848
:104100000E48016841F00201016000680C4C00F0AB
:10411000020005900122C0212046FDF7BCFBC02013
:104120000090112001900120029002200390694626
:104130002046FDF7E5FA06B010BD00001C3802402D
:104140000004024030B50024039D846061B14FF447
:104150000061C160046207214462C0E90A41C0E90C
:1041600004231DB1446030BDC460F3E74FF4827195
:10417000416030BD094B00221B6803E05B08521C04
:10418000072A01D28B42F9D8302101EAC201D207B5
:1041900000D008221143C161704700004400002094
:1041A0002DE9FF4F83B08B460446109FFCF75EFE5F
:1041B0000525022604F1580004F1640904F1700891
:1041C00004F17C0ABBF1070F03D0BBF11F0F2ED007
:1041D00021E033490A6842F480520A600A6822F4F6
:1041E00080520A602E490C310A6842F480520A60FB
:1041F000096801F4805100912A492DE04FF40070C4
:10420000A0610020009000E0009600231A461946A5
:104210002046FFF797FF24492046FFF7ABFF2046D3
:10422000FEF7BBFC07B0BDE8F04FFCF727BE1C490A
:10423000091D0A6842F480420A600A6822F480423A
:104240000A60174910310A6842F480420A6009681E
:1042500001F48041009115492160CDE900650023FA
:1042600002225946FCF7EBFECDE90065002302224D
:1042700048460599FCF7E3FECDE9006500230222DC
:1042800040460699FCF7DBFE0126CDE900650023D8
:10429000022239465046FCF7D2FE7F1CB4D1ADE76E
:1042A00014380240003001408096980000380040E9
:1042B00010B5FDF7FBFABDE81040FEF7CDBC0000DD
:1042C00030B5244895B0016841F080510160006824
:1042D00000F0805014902048016821F4C05141F44E
:1042E0000061016001240520CDE900040220C5031E
:1042F0000294CDE909054FF440200B90A0050C90E5
:104300006846FDF75BFD0F200D9003200E90002006
:104310000F901090119001210DA8FDF7E9FB12A854
:10432000CDE91245FDF730FBFDF7CCFC4FF47A7177
:10433000B0FBF1F0FEF77CFC0420FEF76CFC0320E0
:10434000FDF708FB00221146501EFDF7E3FA15B0F9
:1043500030BD0000243802400070004038B52E48BF
:10436000016841F080510160006800F080500090C9
:104370002A48016821F4C05141F4006101602649D6
:104380002439086840F480300860234C4FF4003230
:104390001034012092FAA2F3B3FA83F343F020031E
:1043A0005B0901D00B6800E0236892FAA2F5B5FA28
:1043B00085F505F01F0500FA05F52B42EAD04FF010
:1043C000807292FAA2F2164BB2FA82F243F82200FD
:1043D0004FF0007393FAA3F2B2FA82F242F0200295
:1043E000520901D00A6800E0226893FAA3F5B5FAF1
:1043F00085F505F01F0500FA05F52A42EAD00648C2
:104400001C38016841F0030101600168C1F38101BA
:104410000329FAD138BD0000243802400070004062
:10442000000047420F48016841F4807101600D4966
:1044300008310A680C4B1A400A6002680B4B1A409C
:104440000260026822F480220260086820F47D0085
:1044500008600020091D086005494FF000600860F1
:1044600070470000003802400CC0FF88FEFFFEEEDF
:1044700008ED00E00148FEF76ABC0000B80100202A
:104480000148FEF764BC0000F00100200148FEF77F
:104490005EBC00002802002070B502684FF0804624
:1044A000134B144CB04203D0984201D0A04205D126
:1044B00022F070054A682A43B0420CD098420AD0D4
:1044C000A04208D00C4B984205D00C4B984202D029
:1044D0000B4B984203D122F44073CA681A4302601E
:1044E0008A68C262096881620121416170BD000071
:1044F000000400400008004000080140000C01409A
:1045000000100140134910B509684FF47A42B1FB1D
:10451000F2F211494FF08043521E0B604FF0FF330F
:1045200003EB8010C86000200861C1E90120084643
:10453000FEF796FB10B109A000F04CFC0648FEF710
:10454000F9FB002804D0BDE810400AA000F042BCEE
:1045500010BD000044000020B8010020B6A8CAB178
:10456000C6F732B3F5CABCBBAFCAA7B0DCA3A10D76
:104570000A000000B6A8CAB1C6F732C6F4B6AFD674
:10458000D0B6CFCAA7B0DCA3A10D0A0001F054BA7F
:104590000022026042600272C0E90312704700000C
:1045A00010B5134C6068002820D0FFF7F3FA61685B
:1045B00000220B68834201D80A6001E0181A0860E3
:1045C0000A7204E001696160C06800B180476068F8
:1045D00000280BD001680029F4D0017A012905D008
:1045E00001210172BDE8104000F004B810BD0000C8
:1045F0006000002010B506490446002008702068BD
:10460000FFF784FA2060BDE81040FFF73DBB0000D3
:104610006000002070B50D46044600F003F82560E8
:10462000656070BD70B50546FCF720FC1F4C6068E6
:10463000011E36D005B3A84221D1017A00260129F6
:1046400007D00069C8B12968606002681144016040
:1046500027E0FFF79FFA2968814200D20846626886
:10466000091A106948B1167260600268114401604D
:1046700001210172FFF7BEFF13E0666011E02A68B6
:104680000DE0A94209D1096921B10161086810440E
:10469000086006E00021016103E00846096900297D
:1046A000EFD1BDE87040FCF7E9BB000060000020DE
:1046B0002DE9F041044600680169E26821F44051A7
:1046C000114301612169A068E269084361691143EE
:1046D00008432168CA6849F20C639A430243CA60DE
:1046E00020684169A26921F4407111434161E16987
:1046F0006425B1F5004F954821684FF032083DD050
:1047000081427AD1FDF7FCFA00EBC00101EB001009
:1047100061688900B0FBF1F6FDF7F2FA00EBC00129
:1047200001EB001061688900B0FBF1F0B0FBF5F01F
:104730006FF01801484306EB800108EB0110B0FB55
:10474000F5F000F0F006FDF7DBFA00EBC00101EB3D
:10475000001061688900B0FBF1F0B0FBF5F006EBEA
:104760000016FDF7CDFA00EBC00101EB0010616807
:104770008900B0FBF1F7FDF7C3FAD0E081423DD1EB
:10478000FDF7BEFA00EBC00101EB001061684900C3
:10479000B0FBF1F0B0FBF5F00601FDF7B1FA00EB6C
:1047A000C00101EB001061684900B0FBF1F7FDF7B3
:1047B000A7FA00EBC00101EB001061684900B0FBF3
:1047C000F1F0B0FBF5F06FF01801484307EB800102
:1047D00008EBC100B0FBF5F000F0F80006EB400676
:1047E000FDF78EFA00EBC00101EB00106168490093
:1047F000B0FBF1F7FDF784FA3CE055E0FDF768FA0D
:1048000000EBC00101EB001061684900B0FBF1F062
:10481000B0FBF5F00601FDF75BFA00EBC00101EB20
:10482000001061684900B0FBF1F7FDF751FA00EBA9
:10483000C00101EB001061684900B0FBF1F0B0FB72
:10484000F5F06FF01801484307EB800108EBC10059
:10485000B0FBF5F000F0F80006EB4006FDF738FA83
:1048600000EBC00101EB001061684900B0FBF1F7FB
:10487000FDF72EFA00EBC00101EB00106168490062
:10488000B0FBF1F0B0FBF5F06FF01801484307EB17
:10489000800108EBC100B0FBF5F000F007002168D3
:1048A00030448860BDE8F081FDF712FA00EBC001EA
:1048B00001EB001061688900B0FBF1F6FDF708FA22
:1048C00000EBC00101EB001061688900B0FBF1F062
:1048D000B0FBF5F06FF01801484306EB800108EBE0
:1048E0000110B0FBF5F000F0F006FDF7F1F900EB78
:1048F000C00101EB001061688900B0FBF1F0B0FB72
:10490000F5F006EB0016FDF7E3F900EBC00101EB53
:10491000001061688900B0FBF1F7FDF7D9F900EBF1
:10492000C00101EB001061688900B0FBF1F0B0FB41
:10493000F5F06FF01801484307EB800108EB011018
:10494000B0FBF5F000F00F00A9E7000000380140CF
:10495000034A0146002012680A4200D00120704735
:104960000038014000B52020FFF7F2FF002810D0EA
:1049700000F038F80849074B8A889854521C90B2C6
:104980000022888001238A704B70FF2800D38A8020
:104990004B7000BD200300203C0000203EB50446C3
:1049A0000A23092200210C4800F049F80021009157
:1049B00001910B46029122460221074800F032F88D
:1049C00006490748FFF7E4FD03B00321BDE8304086
:1049D0000348FFF71FBE00000C0100203D36000811
:1049E0002004002002480068C0F30800704700005F
:1049F0000438014030B50B460446094D0CE0402018
:104A0000FFF7A6FF0128FAD1207828604020FFF7A1
:104A10009FFF0128FAD1641C5B1E9BB2EFD230BD10
:104A200004380140FEB50778DDE908540A9EFF2FDF
:104A300004D0CDE90054029600F00EF8FEBD30B46B
:104A40004478002C06D101244470FF2902D030BCE8
:104A500000F062B930BC70472DE9F05FA94CDDE988
:104A60000BC790F80080DDF8289004F1400504F1B0
:104A70008006B8F1000F21D0B8F1010F23D0B8F1B2
:104A8000020F7CD1DFF88082C6E9008290F80080B6
:104A900000224FF0080A4FF0040B4FF00C0EB8F153
:104AA000000F15D0B8F1010F21D0B8F1020F66D177
:104AB00061B301292DD002292ED035E0DFF84C82D8
:104AC000C4E90082E2E7DFF84882C5E90082DDE759
:104AD00021B1012905D0022906D029E0C4F814A08B
:104AE0001CE0C4F814B019E0C4F814E016E021B1D9
:104AF000012905D0022906D024E0C5F814A00DE054
:104B0000C5F814B00AE0C5F814E007E0C6F814A030
:104B100004E0C6F814B001E0C6F814E0017839B139
:104B200001290FD002292AD1B3B1012B16D01EE0E2
:104B300013B1012B02D045E0A26012E04FF4805186
:104B4000A1600EE013B1012B02D044E0AA6008E09E
:104B50004FF48051A96004E0B26002E04FF480514C
:104B6000B160017871B3012935D0022907D1B9F1BB
:104B7000020F3AD0F26001784FF4806300E078E0F1
:104B80004FF4C06881B3012942D0022971D1BCF130
:104B9000000F4AD0BCF1010F49D0C6F81080007850
:104BA0004FF480714B004FF4407C78B3012861D002
:104BB00002285ED15FB3012F7ED0022F7DD0032F5C
:104BC0007CD086E0B9F1020F01D0E260D3E74FF468
:104BD0000051E160CFE7B9F1020F01D0EA60CAE706
:104BE0004FF40051E960C6E703E04FF40051F16073
:104BF000C1E7BCF1000F05D0BCF1010F04D0C4F82F
:104C00001080CCE72261CAE72361C8E711E058E0D1
:104C1000BCF1000F05D0BCF1010F04D0C5F8108025
:104C2000BDE72A61BBE72B61B9E73261B7E73361C2
:104C3000B5E737B1012F06D0022F06D0032F06D0DB
:104C400007E0A26105E0A16103E0A36101E0C4F80F
:104C500018C02C48E261FEF72EF900220821252019
:104C6000FCF758FE2520FCF74AFE01222949254879
:104C700041E044E037B1012F06D0022F06D0032FC8
:104C800006D007E0AA6105E0A96103E0AB6101E09D
:104C9000C5F818C01B48EA614030FEF70CF9002245
:104CA00008212620FCF736FE2620FCF728FE1949AD
:104CB0000122491C134802E005E006E007E040300D
:104CC00019E0B26105E0B16103E0B36101E0C6F84B
:104CD00018C00C48F2618030FEF7EDF80022082180
:104CE0002720FCF717FE2720FCF709FE0949054895
:104CF0000122891C8030BDE8F05FFEF70DB9BDE8E8
:104D0000F09F000060020020004800400038014091
:104D100000440040380000202DE9FC419846174629
:104D200001700B1E4FF007064FF0010400F1100553
:104D300016D0264A25490C32012B25D0022B43D10F
:104D40000B6843F480230B600B6823F480230B6013
:104D5000116841F480211160116801F4802122E082
:104D60001A49091F0A6842F480420A600A6822F45C
:104D700080420A60154908310A6842F480420A609C
:104D8000096801F480410EE00B6843F400330B60C6
:104D90000B6823F400330B60116841F4003111609B
:104DA000116801F400310091CDE900460023022290
:104DB0003946001DFCF743F9CDE9004600230222E5
:104DC00041462846FCF73BF9BDE8FC811838024013
:104DD000FEE700000FB4054B10B503A9044A029882
:104DE00000F080F910BC5DF814FB0000315A000897
:104DF000680000200FB4084B10B504A902AA03985C
:104E000000F070F9044602A9002000F0EEFC2046F4
:104E100010BC5DF814FB0000EB570008490050EA95
:104E2000C12018BF04204A0D18BF40F0010040F215
:104E3000FF72B2EB515F08BF40F00200012808BFCB
:104E4000052070472DE9F0414F1E00EBC7010446D5
:104E5000D1E9000115461E4637F006020DD02A465C
:104E60003346FBF7F8FA7F1E04EBC703D3E90023B0
:104E7000FBF74AFA37F00602F1D1022F25D0042FB2
:104E800013D0062F18BFBDE8F0812A463346FBF742
:104E9000E2FAD4E90A23FBF737FA2A463346FBF74E
:104EA000DAFAD4E90823FBF72FFA2A463346FBF750
:104EB000D2FAD4E90623FBF727FA2A463346FBF752
:104EC000CAFAD4E90423FBF71FFA2A463346FBF754
:104ED000C2FAD4E90223FBF717FA2A463346FBF756
:104EE000BAFAD4E90023BDE8F041FBF70DBA00009F
:104EF0000022134610460149FBF71FBB0000F03F9C
:104F00000122FBF789BBFBF7FFB9002213461046CD
:104F10001146FBF712BB40F2013200204FF0E04196
:104F2000FBF77ABB024A00201107FBF775BB0000B4
:104F300001FDFFFF02E008C8121F08C1002AFAD1D4
:104F400070477047002001E001C1121F002AFBD109
:104F50007047000001490860704700006C000020A5
:104F60002DE9FF5F82B00021DDE90430020DDDF89C
:104F700040B0034318D044F61050A2F2FF3242432F
:104F80001514119801281FD0A5EB0B00401C5FEAF7
:104F9000000A4FF000064E4FDFF83891B0465046F9
:104FA00015D5CAF1000413E0119801244AA3012881
:104FB00001D16FEA0B010298119AC0E90031C0E9F2
:104FC000024206B0BDE8F09FCBF10000DFE70446E7
:104FD0000021404A491842EB0450CDE9001012E08C
:104FE000E00707D032463B4640464946FBF733FAD6
:104FF0008046894632463B4610461946FBF72BFA57
:1050000006460F466410002CEAD1DDE90401DDE913
:105010000023BAF1000F06DAFBF71DFA42464B46B1
:10502000FBF719FA05E0FBF788FA42464B46FBF717
:1050300084FA04460E460022284BFBF79FFB03D858
:105040004FF0FF30014607E00022254B2046314655
:10505000FBF75AF9FBF716FD102409E0002C0ADBD8
:105060000A220023FBF7D4FB039B30321A55641E3F
:1050700050EA0102F2D1641C039AC4F111031444F2
:10508000119A012A03D0012208430DD10AE00843F6
:1050900004D000204FF0110B119072E7A3EB0B0529
:1050A0006D1E0DE05B4504DD4FF0000205F10105CA
:1050B00004E003DA4FF00002A5F10105002AECD06C
:1050C00002981199C0E90231C0E9004579E7000072
:1050D000000014400000F03F300000000000F043EA
:1050E0000000E03F2DE9FF4F95B09A4688460646FE
:1050F0000025EEE1252877D100242746F94A012131
:10510000039400E0044316F8013F203B01FA03F04A
:105110001042F7D130782A2811D06FF02F03307861
:10512000A0F13002092A16D8039A44F0020402EBD7
:10513000820203EB42021044761C0390EFE758F81A
:10514000042B0392002A03DA504244F400540390E3
:1051500044F00204761C30782E2816D116F8010F80
:1051600044F004042A280DD06FF02F023078A0F10B
:105170003003092B09D807EB870302EB4303C71859
:10518000761CF3E758F8047B761C30786C280FD037
:1051900006DC4C2817D068280DD06A2814D104E00A
:1051A000742810D07A280FD10DE044F400140AE0DE
:1051B00044F4801401E044F440147278824202D135
:1051C00004F58014761C761C307866280BD013DC2E
:1051D000582877D009DC002875D04528F6D0462815
:1051E000F4D047281AD193E118E0632835D0642819
:1051F00079D0652812D18BE1702873D008DC67283C
:10520000F1D069286FD06E280DD06F2806D1ACE0A0
:1052100073282CD0752874D0782853D0524617990B
:1052200090476D1C54E1C4F30250022809D00328B2
:105230000DD0D8F8001004280DD00D6008F1040836
:1052400046E1D8F80010EA17C1E90052F6E7D8F8AD
:1052500000100D80F2E70D70F0E718F8041B8DF8D0
:10526000001000208DF80100EB46012003E058F803
:1052700004BB4FF0FF3061074FF0000102D40DE096
:1052800009F101018946B9420FDA8145F8DB1BF8C3
:1052900009100029F4D108E009F101018946814291
:1052A000FADB1BF809100029F6D103985346A0EB4E
:1052B000090721463846179A00F080FA284400EB87
:1052C000090507E044E008E10DE01BF8010B524638
:1052D00017999047B9F10109F7D25346214638464C
:1052E000179AF2E039E00A21C4F302524FF0000BA2
:1052F0000091022A06D058F8040BC117032A09D0DE
:105300000AE023E008F1070020F00702F2E80201BA
:10531000904605E000B2C117042A01D140B2C1177E
:10532000002906DA0A460021404261EB02012D22E3
:1053300002E0220504D52B228DF80420012203E08F
:10534000E20701D02022F7E7914657E00A2100E06A
:1053500010214FF0000B00910BE010214FF0000BDB
:1053600044F004040827009103E008204FF0000BEC
:105370000090C4F30252022A05D058F8040B002111
:10538000032A08D008E008F1070020F00702F2E83D
:105390000201904603E080B2042A00D1C0B24FF06F
:1053A000000922072AD53278702A07D0DDF800C01C
:1053B0008CF0100C5CEA0B0C05D00EE040228DF84E
:1053C0000420012208E050EA010306D030238DF8C2
:1053D00004308DF8052002229146009B83F00803DB
:1053E00053EA0B030AD150EA010201D1620705D545
:1053F00030228DF804204FF001097F1E3278582AA0
:1054000004D039A20C920CAA02920BE03BA2F9E75D
:105410005B46009AFBF7FCF90C9B9B5C029A521EC0
:105420000292137050EA0102F2D1029804A9081AFC
:1054300000F1200B600702D524F4803400E001273E
:105440005F4502DDA7EB0B0000E0002000EB0B0145
:10545000009003984944401A0390E00306D4534651
:105460002146179A039800F0A9F90544002706E0A1
:1054700001A85246C05D179990476D1C7F1C4F458F
:10548000F6DBE0030CD553462146179A039800F04B
:1054900095F9054404E030205246179990476D1C59
:1054A0000099481E00900029F5DC08E00298029956
:1054B00052460078491C0291179990476D1CBBF128
:1054C0000001ABF1010BF1DC5BE100F065F9054493
:1054D000761C307800287FF40DAE19B02846BDE860
:1054E000F08F00000928010030313233343536376F
:1054F0003839616263646566000000003031323320
:1055000034353637383941424344454600000000BF
:10551000600700D4062708F1070020F00700F0E834
:105520000223804603F0004C5FEA0C0001D097A0F4
:1055300009E0200501D596A005E0E00701D095A07F
:1055400001E0AFF24C001390307823F0004365285F
:105550000CD006DC452809D046281DD047287FD12D
:105560003BE0662818D067287AD136E00021112F59
:1055700001DB112000E0781CCDE9000104A90CA892
:10558000FFF7EEFCDDE90D010C9A4FF0000B07F17F
:105590000109109200914EE04FF000400097CDE9D4
:1055A000011004A90CA8FFF7DBFCDDE90D020C9B40
:1055B0000F994FF0000B91461093009211B9791C8E
:1055C00000EB0109B7EB090003D4C0F1FF3B07F181
:1055D0000109A9EB0700019042E0012F00DA012741
:1055E0000021112F01DD112000E03846CDE9000136
:1055F00004A90CA8FFF7B4FCDDE90D010C9A009199
:105600004FF0000BB946109221070FD4009A4A457B
:1056100003DA914601E0A9F10109B9F1010F05DDB5
:10562000109AA9F10101515C3029F4D0B84202DA94
:1056300010F1040F03DA0121CDE9011010E0002878
:1056400003DC8344A9EB000102E0411C494500DD75
:105650008946A0EB0B00401C01904FF000400290E7
:10566000200705D40198484502DB4FF0FF30019038
:1056700000208DF84B0002980DF14B07B0F1004F60
:1056800025D002200C902B200D90029800280CDAD7
:10569000404202902D200D9007E00A210298FBF76E
:1056A000A1F83031029007F8011D0C99481E0C90AA
:1056B0000029F2DC02980028EFD1791E0D980870BD
:1056C000307800F0200040F0450007F8020D11A8E6
:1056D000C01BC01D02901398007800B1012000EBA0
:1056E0000901019801EBE071029801440398401A06
:1056F000401E0390E00306D453462146179A0398B0
:1057000000F05CF805441398007818B152461799D8
:1057100090476D1CE00323D553462146179A039802
:1057200000F04CF805441BE0BBF1000F07DB0098CC
:10573000584504DD1098179910F80B0001E01799EF
:1057400030205246904701980BF1010B401E05F1A5
:105750000105019004D12E205246179990476D1CE7
:10576000B9F10001A9F10109DEDC05E017F8010B30
:105770005246179990476D1C0299481E02900029C5
:10578000F4DC53462146179A03989EE62D0000004C
:105790002B000000200000002DE9F0410446002508
:1057A0001E461746880404D405E039462020B04739
:1057B0006D1C641EF9D52846BDE8F0812DE9F04145
:1057C000044600251E469046C80301D5302700E058
:1057D0002027880404D505E041463846B0476D1CB3
:1057E000641EF9D52846BDE8F0810A68531C0B6099
:1057F000107070472DE9F05F804606680D46244F13
:10580000DFF89090DFF890A0DFF890B00868FAF722
:1058100089FF234A234BFAF71EFE234A234BFAF74C
:1058200014FEFAF7C3FF044649463046FAF7FCFC7B
:10583000814651463046FAF7F7FC3146FAF7F4FC58
:105840004946FAF799FC3946FAF796FC0746594655
:105850003046FAF7E9FC1649FAF78EFC0646154978
:105860002046FAF7DBFC3146FAF7DEFC3946FAF758
:1058700083FC1149114A884201DD084602E090424A
:1058800000DA10462C60C8F80000BDE8F09F000068
:10589000C5FE02C0BD52163DF624D6B5ACC5A7382C
:1058A0007B14AE47E17A843FCDCCCCCCCC0C4440C9
:1058B0000AD7233C0000C8410000C842CDCCCC3DF3
:1058C0003EB505460D480C46007818B1284600F054
:1058D00017F83EBDC82000900123002202A901A8AC
:1058E000FEF76AFA20B1FEF74AFB08B1FEF704FBA7
:1058F00001982860029820603EBD00005A000020F8
:10590000FEB50D46064601F029F9012202A96846B6
:1059100001F04CF90446002202A901A801F046F961
:10592000204410F0FF0F02D001F018F90DE0BDF88F
:105930000000FAF788FE0090BDF80400FAF783FE35
:10594000019001A96846FFF755FF01983060009863
:105950002860FEBD2DE9F041C1F30A52A2F2FF36E4
:105960002F4A304B0D460446142E2FDA002E12DA41
:10597000FAF7CAFC00221346FAF700FF4CD2002DBA
:10598000BCBF4FF00045002446DB55EA040018BFB9
:10599000254D19D140E0DFF894C02CFA06F705EA4E
:1059A000070C5CEA040C08BFBDE8F081FAF7ACFC18
:1059B00000221346FAF7E2FE2ED2002D03DD4FF44B
:1059C0008010F0400544BD43002425E0332EC8BFBD
:1059D000BDE8F081A6F1140C4FF0FF3727FA0CF761
:1059E0003C4208BFBDE8F081FAF732FD00221346C1
:1059F000FAF7C4FE10D2002D0DDD142E08BF6D1C69
:105A000009D0C6F13400012101FA00F02044A0427F
:105A100038BF6D1C0446BC4329462046BDE8F081D2
:105A20009C7500883CE4377E0000F03FFFFF0F00CC
:105A30007047FEF707BB000005490868401C086076
:105A40000A2803D30020086001F0D4B97047000091
:105A50000C000020F0B585B04FF400500024012563
:105A600003268DE8710069460948FBF749FE0220CC
:105A70008DE87100074F69463846FBF741FE20204C
:105A80008DE8710069463846FBF73AFE05B0F0BD77
:105A900000080240000402402DE9F04DC84A0024ED
:105AA00090B0914205DA21F00043934201D805D12C
:105AB00020B110B0BDE8F04DFFF722BAB1F5801F5C
:105AC0001BDA53EA000209D0002911DA0120FFF79E
:105AD00041FA10B0BDE8F04DFFF717BA0220FFF70A
